:1000000000000120750300005D0300005F03000095
:1000100061030000630300006503000000000000AE
:100020000000000000000000000000006703000066
:1000300069030000000000006B0300006D03000076
:100040006F0300006F0300006F0300006F030000E8
:100050006F0300006F0300006F0300006F030000D8
:100060006F0300006F0300006F0300006F030000C8
:100070006F0300006F0300006F0300006F030000B8
:100080006F0300006F0300006F0300006F030000A8
:100090006F0300006F0300006F0300006F03000098
:1000A0006F0300006F0300006F0300006F03000088
:1000B0006F0300006F03000000000000000000005C
:1000C0006F0300006F0300006F0300006F03000068
:1000D0006F0300006F0300006F03000000000000CA
:1000E0000000000000000000000000000000000010
:1000F0000000000000000000000000000000000000
:1001000000000000000000000000000000000000EF
:1001100000000000000000000000000000000000DF
:1001200000000000000000000000000000000000CF
:1001300000000000000000000000000000000000BF
:1001400000000000000000000000000000000000AF
:10015000000000000000000000000000000000009F
:10016000000000000000000000000000000000008F
:10017000000000000000000000000000000000007F
:10018000000000000000000000000000000000006F
:10019000000000000000000000000000000000005F
:1001A000000000000000000000000000000000004F
:1001B000000000000000000000000000000000003F
:1001C000000000000000000000000000000000002F
:1001D000000000000000000000000000000000001F
:1001E000000000000000000000000000000000000F
:1001F00000000000000000000000000000000000FF
:10020000354936480A1A02D0072291438D463449AF
:1002100034480A1A06D00722914381F30988022242
:1002200082F3148830483149314A00F044F83148AB
:100230003149324A00F03FF831483249324A00F041
:100240003AF832483249334A00F035F832483349F7
:10025000334A00F030F833483349344A00F02BF881
:1002600033483449344A00F026F8344834490022EF
:1002700000F02CF833483449002200F027F83348C6
:100280003349091A082902DB002202604160314A21
:1002900090471F481F49884205D00268043003B4C4
:1002A000904703BCF7E700208646EC46002000217B
:1002B000294A9047FEE7884207D0521A05D00378B2
:1002C00001300B700131013AF9D17047884202D0F8
:1002D00002700130FAE770470000012000E00020C2
:1002E0000000012000000120300700000000002075
:1002F00004000020D0030000D00300001C07000011
:100300003007000000000020000000201C07000053
:100310001C0700001C0700001C0700001C07000051
:100320001C0700001C0700001C070000300700002D
:100330003407000004000020040000200400002016
:10034000040000200400002004000020040000201D
:10035000042000209D030000D1030000FEE7FEE71B
:10036000FEE7FEE7FEE7FEE7FEE7FEE7FEE7FEE765
:1003700000F002B8FFF7FCBF0F484FF007018843B9
:1003800085460E4880470E48016841F470010160BF
:10039000BFF34F8FBFF36F8FFFF732BF09480A4992
:1003A0000A4A884207D0521A05D0037801300B70F0
:1003B0000131013AF9D170470000012051040000D9
:1003C00088ED00E01C070000000000200000002075
:1003D00008B54FF0A0430322C3F844270C22C3F80A
:1003E00034270D2000F080F901284FF0110002D1D0
:1003F00000F084F9F5E700F089F9F2E74FF0805357
:10040000D3F83001421C04BF4FF0704393F8E00F63
:10041000831F5842584170474FF0704393F8E02FC4
:10042000062A09D1D3F8E83FC3F30313033B042B97
:1004300002D8024AD05C7047002070472B070000AA
:10044000024AD2F80034002BFBD0704700E0014094
:1004500010B5FFF7D3FF40B14FF08053944AD3F863
:100460002433C3F30423C2F84035FFF7D5FF10B19E
:10047000904B914A5A67FFF7C1FF48B14FF0805344
:100480004FF08042D3F84432C3F34233C2F83C35D4
:10049000FFF7C2FF30B1894AD2F8FC3023F08073F5
:1004A000C2F8FC30FFF7AAFF40B14FF080430022B2
:1004B000C3F80C21C3F81021C3F83825FFF7ACFFAF
:1004C00020B14FF080430322C3F8A025FFF7A4FF1B
:1004D00060B17B4B0522C3F810260122C3F88826A1
:1004E0000022C3F818263F22C3F814264FF0805389
:1004F000D3F83021511C09BF4FF07043D3F8343189
:1005000093F8E02FD3F8E83F08BFC3F30313062A9C
:100510004DD1033B042B03D86A4AD35C002B46D051
:100520004FF08052684BD2F80414C3F82015D2F86B
:100530000814C3F82415D2F80C14C3F82815D2F8FF
:100540001014C3F82C15D2F81414C3F83015D2F8CF
:100550001814C3F83415D2F81C14C3F84015D2F897
:100560002014C3F84415D2F82414C3F84815D2F85F
:100570002814C3F84C15D2F82C14C3F85015D2F82F
:100580003014C3F85415D2F83414C3F86015D2F8F7
:100590003814C3F86415D2F83C14C3F86815D2F8BF
:1005A0004014C3F86C15D2F84424C3F87025FFF743
:1005B00025FF48B14FF080534FF08042D3F85832B6
:1005C00003F04F03C2F8E43EFFF718FF48B14FF0C5
:1005D0008043D3F80024D20744BF6FF00102C3F870
:1005E00000244FF08053D3F83021062A0ED1D3F8DF
:1005F0003431033B042B02D8344AD35C33B1344A40
:10060000D2F83C3743F48063C2F83C372B4AD2F827
:10061000883043F47003C2F88830BFF34F8FBFF3C4
:100620006F8F4FF08053D3F83021062A0FD1D3F8C3
:100630003431033B042B02D8264AD35C3BB14FF044
:100640001023D3F808224FF08043C3F858254FF009
:100650001023D3F80022002A03DBD3F80432002B46
:1006600022DA1D4901234FF01020C1F8043515246A
:10067000FFF7E6FEC0F80042FFF7E2FEC0F80442D2
:10068000FFF7DEFE0023C1F80435FFF7D9FEBFF304
:100690004F8F0A49114BCA6802F4E0621343CB60E2
:1006A000BFF34F8F00BFFDE70D4B0E4A1A6010BD20
:1006B0000030014000C007400DF0ADBA00ED00E091
:1006C000005000401C07000000C00040210700004F
:1006D000001000402607000000E001400400FA0579
:1006E000000000200090D0034FF0A043D3F8103555
:1006F00023FA00F0C04300F001007047012303FA21
:1007000000F04FF0A043C3F808057047012303FA37
:0C07100000F04FF0A043C3F80C05704748
:10071C0000000101010000000101000000000101C6
:04072C0000000000C9
:040730000090D00362
:040000030000037581
:00000001FF
