:020000022000DC
:1070000000000420757302005D7302005F730200CC
:1070100061730200637302006573020000000000E8
:107020000000000000000000000000006773020084
:1070300069730200000000006B7302006D730200B0
:1070400069AC02006F73020005B102006F730200A9
:107050006F7302006F73020089AF02006F7302004A
:107060006F7302006F7302006F7302006F73020090
:107070006F7302006F7302006F7302006F73020080
:107080006F730200D98702006F7302006F730200F2
:107090006F7302006F730200190B03006F7302001D
:1070A0006F7302006F7302006F7302006F73020050
:1070B0006F7302006F730200000000000000000008
:1070C0006F7302006F7302006F7302006F73020030
:1070D0006F7302006F7302006F7302006F73020020
:1070E0006F7302006F7302006F73020000000000F4
:1070F000000000006F730200000000006F730200C8
:10710000000000000000000000000000000000007F
:10711000000000000000000000000000000000006F
:10712000000000000000000000000000000000005F
:10713000000000000000000000000000000000004F
:10714000000000000000000000000000000000003F
:10715000000000000000000000000000000000002F
:10716000000000000000000000000000000000001F
:10717000000000000000000000000000000000000F
:1071800000000000000000000000000000000000FF
:1071900000000000000000000000000000000000EF
:1071A00000000000000000000000000000000000DF
:1071B00000000000000000000000000000000000CF
:1071C00000000000000000000000000000000000BF
:1071D00000000000000000000000000000000000AF
:1071E000000000000000000000000000000000009F
:1071F000000000000000000000000000000000008F
:10720000354936480A1A02D0072291438D4634493F
:1072100034480A1A06D00722914381F309880222D2
:1072200082F3148830483149314A00F044F831483B
:107230003149324A00F03FF831483249324A00F0D1
:107240003AF832483249334A00F035F83248334987
:10725000334A00F030F833483349344A00F02BF811
:1072600033483449344A00F026F83448344900227F
:1072700000F02CF833483449002200F027F8334856
:107280003349091A082902DB002202604160314AB1
:1072900090471F481F49884205D00268043003B454
:1072A000904703BCF7E700208646EC46002000210B
:1072B000294A9047FEE7884207D0521A05D0037842
:1072C00001300B700131013AF9D17047884202D088
:1072D00002700130FAE770470000042000E003204C
:1072E0000000042000000420D43603007422002093
:1072F00054230020D0730200D0730200B0100300AA
:10730000D4360300742200207422002028120300C7
:107310002812030028120300281203002812030079
:10732000281203002812030028120300D436030099
:10733000B43703005423002054230020542300209A
:107340004C3500204C3500204C3500204C350020B9
:107350004C5500209D7302007DC20200FEE7FEE74F
:10736000FEE7FEE7FEE7FEE7FEE7FEE7FEE7FEE7F5
:1073700000F002B8FFF7FCBF0F484FF00701884349
:1073800085460E4880470E48016841F4700101604F
:10739000BFF34F8FBFF36F8FFFF732BF09480A4922
:1073A0000A4A884207D0521A05D0037801300B7080
:1073B0000131013AF9D170470000042069A60200AA
:1073C00088ED00E0141203006022002074220020E7
:1073D000F0B595B01D46164608460C4603F04CF82D
:1073E0001A9B0D93CDE9086500252B46082205A9B7
:1073F00020460A958DF82C500C9503F059F8079B00
:107400000293069B03939DF814308DF8115003F0FE
:107410000302012A1DD1BDF81420059DC3F3C20348
:10742000C2F383168DF81030B20008230EA920464F
:1074300003F03EF8C5F3952508AB0093324602AB46
:107440000EA9284600F0C8FB204603F019F815B035
:10745000F0BD022AF8D1BDF81650C3F3C203C5F33C
:1074600089158DF810300827082D2E4628BF0826CC
:107470003B4632460EA9204603F01AF8AD1B08AB76
:1074800002AA31460EA8374400F00AFC002DEBD1C9
:10749000DAE70000014B01221A70704795230020A3
:1074A0007047000070B50E4D06460FCD88B06C4693
:1074B0000FC495E80F00002E84E80F00094A0A481F
:1074C0004FF0060308BF00226946009303F054FB07
:1074D00008B100F0B7FD054B1E7008B070BD00BFCD
:1074E0002812030095740200742200205423002007
:1074F00007B5044B0093044A4023FFF769FF03B02C
:107500005DF804FB0D7502005523002038B50D48C9
:107510000D4C0E4D002323700378EB5CD2B263B1A7
:10752000043004F0B9FA08B100F08CFD084B1A7869
:1075300012B12378002BFBD038BD0C3004F03CF89E
:10754000F1E700BF7422002095230020002C0020CA
:107550005423002008B50848084A0378D35C3BB19F
:10756000043004F009FABDE808400020FFF79ABF94
:107570000C3003F0B9FFF6E774220020002C002045
:107580000120FFF78FBF000008B5FFF7F9FF04489F
:10759000042100F08BFA034B01225A7108BD00BF91
:1075A0000412030088220020037813F0040216D08E
:1075B00003F00303012B03D0022B09D001207047F5
:1075C0000A6800880232C0F3831002440A60F5E7BB
:1075D0000B684288023303EB92130B60EEE7104610
:1075E000704700002DE9F04FDFF81CA187B00F466F
:1075F00000230446861C0DF1070015468DF8073060
:1076000000F07CFFDAF804203A60DAF8083003F57D
:1076100080739B1A0AF21C470AF583690AF2144820
:10762000B3421AD30020002D69D004F00F039B0150
:1076300043F0050363F30F00DAF80430DAB20332E3
:1076400033444AF822009DF80700CAF8043000F0DD
:1076500079FF012007B0BDE8F08F0121384602F024
:1076600077F9484602F08FF9404602F08CF9DAF8D3
:1076700008000290C0B203300AEB800002A9FFF7B5
:1076800093FF029B30BBDAB20AEB8202D16803910E
:107690009A1C0133DBB20AEB83030292D3F80CB0DD
:1076A00001F00303012B22D0022B15D08346404664
:1076B00002F06CF910B1029BCAF8083059463846FE
:1076C00002F046F9DAF80830DAF8042003F580739E
:1076D0009B1AA5E7D8B2CEE7BDF80E30C3F38913E5
:1076E00003334FEA1B4B02EB93030293DFE7BDF832
:1076F0000C30C3F383134FEA1B4B1344F5E7A40587
:1077000044F0060098E700BF68240020064B0748B5
:1077100010B500221A7002F068FE044610B9044841
:1077200002F010FF204610BD68240020281103003D
:107730007C12030030B50A4C71B10A4A0A49121B87
:10774000D20800239A4201D1002030BD31F82350E5
:10775000854202D00133F5E7034654F83300F4E7DD
:107760003C1103000412030074220020094B01396C
:1077700003EBC000032909D8DFE801F00A02040680
:1077800004207047007970474079704700207047A7
:10779000022070473C11030070470000034BD3E9FF
:1077A0000130C31A58425841704700BF6824002076
:1077B0002DE9F04186B0FFF7F1FF0546002840F0C3
:1077C000ED80774CC4F81804BFF34F8FA368029381
:1077D000DBB2033304EB830002A9FFF7E5FE029B53
:1077E00018B1D4F81824002A5AD0DAB2991C0133FF
:1077F00004EB8202DBB204EB8303D268DB68049300
:1078000002F00303022B0392029154D1BDF80E3013
:107810006448C3F38917502F3E4628BF502606F10F
:10782000080166F38F13C1F30901ADF80E3002F0C1
:10783000F4FD0546002800F09C8002F01DFE0023A8
:10784000082203A9284602F029FE0299CB43DBB2A5
:107850000133C9B20331B6EB830F4FEA830204EB65
:10786000810125D95FFA82F80823A6EB080628468D
:1078700002F014FEF6B208F108034B4903F0FC03D2
:107880003246284602F00AFE029B033703EB9707B5
:107890000297D4F81834002B43D1D4F8106453E085
:1078A00062689A4294D8A260284606B0BDE8F0818A
:1078B00008233246E5E7012B5BD1BDF80C3039488F
:1078C000C3F38311062928BF062161F3891302310E
:1078D00001F00F018900ADF80C3002F09EFD054665
:1078E000002846D002F0C8FD0023082203A928463C
:1078F00002F0D4FD0026BDF80C20C2F38312B300C1
:10790000964203F10803C4D202994A1CC9B203315A
:10791000029204EB81010422284602F0BFFD0136E9
:10792000E9E7284602F0ACFDFFF738FF80F00100E0
:10793000C5B2B9E7F3685B7923B1336829461B68A0
:1079400030469847F3681E68002EF3D1284602F0AF
:1079500097FD0DF107008DF8076000F0CFFDD4F81A
:1079600018340BB9029BA3609DF8070000F0EAFDF4
:10797000DAE7D4F8104454B90C4B0D480D49C01A3D
:10798000C008000440F0020000F05EF8CCE7236875
:1079900020469B689847E3681C68ECE7002583E76E
:1079A0006824002028110300742400203C110300E7
:1079B00064110300651203002DE9F34704460E46E7
:1079C000924601A9012218469946FFF70BFE1C4F6B
:1079D00010B3019D4FF00008AA1CC84508EB020136
:1079E00025D11848002101F06CFF80F3100000043D
:1079F00040EA1440E4006B1C04F03804DBB2EDB242
:107A000044F0010407EB8303033544EA881444EA95
:107A10008624D86047F825403B781BB1FFF7C8FEA5
:107A20000028FBD1FFF7B8FE02B0BDE8F087C9B26D
:107A300007EB81015AF82830CB6008F10108CCE748
:107A4000682400208428002000231A46FFF7B4BFD2
:107A500007B50123019201AAFFF7AEFF03B05DF85D
:107A600004FB07B5CDE9002302236A46FFF7A4FF14
:107A700003B05DF804FB1FB5CDE90123069B03931A
:107A800001AA0323FFF798FF05B05DF804FB1FB5BB
:107A9000CDE90023069B0293079B03936A460423C8
:107AA000FFF78AFF05B05DF804FB000030B50F4C0E
:107AB000D4F8102403460020114631B9D968087162
:107AC0004AB9C4F810340A6030BDC9680D798542DE
:107AD00006D00968F1E7D26814680C601360F3E718
:107AE00001300A28E8D14FF0FF30EDE7682400208C
:107AF00038B5084B0125D3F810441D7004B938BDC2
:107B0000E3685D71236820465B689847E3681C68FA
:107B1000F4E700BF6824002030B5C38885B0044670
:107B20000D4633B1144A00921449154A284601F013
:107B300090FF217A05291DD0637A4BB1A088FFF709
:107B400015FE104B104953F82020284601F081FF04
:107B5000227A0E4BA08853F8222003920021FFF7CF
:107B6000E9FD039A0A490346284605B0BDE83040BE
:107B700001F06FBF05B030BDA812030090120300E2
:107B80008812030014130300F729030038130300BD
:107B9000AD12030007B503460846197A052911D02E
:107BA0005B7A2BB1094A0A49019001F052FF019812
:107BB0000849019001F04DFF019803B05DF804EB16
:107BC00001F03CBF002AF8D0F2E700BFA812030082
:107BD000F7290300A51203002DE9F04385B01F46E5
:107BE0000C9D002395F80C902B7306460C4690468E
:107BF00029463846FFF790FFB8F1060F09D8DFE8AD
:107C000008F00412181F283340003146284601F0BE
:107C100020FF002229463846FFF7BCFF85F80C906C
:107C200005B0BDE8F08322683146284601F011FF17
:107C3000EFE7D4E900233146284601F00AFFE8E7E0
:107C4000A36800933146D4E90023284601F001FFE0
:107C5000DFE7E3680193A36800933146D4E900238A
:107C6000284601F0F6FED4E723690293E368019306
:107C7000A36800933146D4E90023284601F0E9FEC9
:107C8000C7E76369039323690293E3680193A368D9
:107C900000933146D4E90023284601F0DAFEB8E724
:107CA00008292DE9F74F80460E4617461C463DD859
:107CB00000251B7B2573214610460193FFF72CFFFF
:107CC000DFF88CA0DFF88CB0AE4232D918F805206E
:107CD0005946204601F0BDFE0135082DF4D11B495F
:107CE000DFF874A0DFF874B0204601F0B2FE4FF068
:107CF00000094E4524D918F809507E2D1ED8284673
:107D000009F00EF9002814BF2A462E2259462046B3
:107D100001F09FFE09F10109B9F1080FE9D1012233
:107D200021463846FFF736FF019B237303B0BDE8B9
:107D3000F08F5146204601F08CFECDE72E22E5E77C
:107D40005146204601F085FEE4E700BFC112030062
:107D5000BD120300B7120300BF120300C3120300D9
:107D6000C30710B507D4F023054A4008145C23402C
:107D70001943115410BD0901C9B20F23F4E700BF24
:107D80003029002030B5094B1C78094B19680023B5
:107D90009C4202DC0022104630BD11F8335085426F
:107DA00001EBC302F7D00133F2E700BF2029002026
:107DB0005029002013B504460191FFF7E3FF38B1C5
:107DC00043682BB10199204602B0BDE81040184726
:107DD00002B010BD034B044819680022490800F0A6
:107DE00055BA00BF242900209022002010B5C0B24F
:107DF000FFF7C8FF0446007803F0B8F863785A1E0E
:107E000053425341834208D1044BD3E90023134327
:107E100003D1BDE81040FFF7DDBF10BD28290020C9
:107E200037B54308374AD35CC2074CBF1B0903F080
:107E30000F0304460D46042B25D8DFE803F0032684
:107E40002F3C4000F9B10121FFF78AFF00230DF11B
:107E500007008DF8073000F051FB0120A4F120034A
:107E6000C4F12001284A20FA01F100FA03F30B4380
:107E7000A040D2E9004120430B43C2E900039DF832
:107E8000070000F05FFB03B030BD002918BF0221DE
:107E9000204603B0BDE83040FFF762BF49B103217F
:107EA000FFF75EFF0121204603B0BDE83040FFF739
:107EB00081BF0121ECE70029E5D10421E8E709B100
:107EC0000321E5E7FFF74CFF29462046FFF772FF45
:107ED0000DF107008DF8075000F010FB0120A4F110
:107EE0002003C4F12001084A20FA01F100FA03F34B
:107EF0000B43A040D2E9004124EA000021EA030339
:107F0000BBE700BF30290020282900202DE9F041DF
:107F1000124E134F00243378A34208DC114BD3E9EF
:107F20000023134318D0BDE8F041FFF753BF3D686D
:107F300005EBC40815F8340003F018F898F8013080
:107F40005A1E53425341181A4142414115F8340018
:107F5000FFF766FF0134DEE7BDE8F081202900204D
:107F60005029002028290020092AF7B505460C468B
:107F700016463ED902F022FFE8B11F4B1F481D6094
:107F80001F4B204F1C70204B002120221E6009F047
:107F90002CF81E4B00200021C3E90001013CE4B293
:107FA0000326FF2C0DD11A4A1A48002103B0BDE860
:107FB000F04000F059B902F0BDFE0028DDD003B05A
:107FC000F0BD9DF8063015F834008DF8046005EB1F
:107FD000C40223F007038DF8063001A993788DF8C9
:107FE00005303A4602F0F4FE013CE4B20028D8D055
:107FF000E5E70720E3E700BF5029002030290020F3
:1080000020290020ED7D02002429002028290020BD
:108010000D7F02005813030070B5084D084E002470
:108020002B789C4201D3002070BD3368012113F8E6
:10803000340002F04DFF0134F2E700BF2029002098
:10804000502900201FB50021039001AA44F201002D
:10805000CDE9011100F004F805B05DF804FB000063
:1080600038B572B6FFF744FDFFF7A2FB0028FBD13D
:10807000104B114C114D1249E41AE408240444F049
:108080000100FFF7E1FCD5F8F030DB0700D500BEBA
:108090000C4944F00200FFF7D7FCBFF34F8FEA68AA
:1080A000094B02F4E0621343EB60BFF34F8F00BF54
:1080B000FDE700BF3C1103006411030000ED00E088
:1080C0005C130300681303000400FA0510B5D0E93F
:1080D0000243D1E90202A04272EB03032CBF01204C
:1080E000002010BD08B50A4800F05FFB094AD2E93C
:1080F0000031C018084BD3E9002341F10001904240
:1081000071EB030303D210F1807041F1000108BD4F
:10811000B022002058290020D029002037B505467C
:108120000C460A4801A901F000FB60B105704460EB
:1081300001A9064801F023FB18B1054800F03AFBFD
:10814000002003B030BD0420FBE700BFBC290020A5
:10815000B0220020294B73B51E7804461EB90026B4
:10816000304602B070BD0028F9D0FFF7BBFFD4E95C
:1081700002239042994139D300230DF107008DF875
:10818000073000F0BBF923692BB94FF0FF324FF0F5
:10819000FF33C4E902239DF8070000F0D3F9D4E9C6
:1081A0000530984700250DF107008DF8075000F0C5
:1081B000A5F92369C3B1D4E90212B2F1FF3F08BFA8
:1081C000B1F1FF3F05D05B1842F10002C4E9023271
:1081D00035469DF8070000F0B5F9002DBFD00848DE
:1081E000214602F0CEF9BBE71D46F2E7B3F1FF3FAF
:1081F00008BFB2F1FF3FB2D0F1E700BF6029002015
:108200008413030013B5114B11491868019008231A
:108210001048582201F054FA044698B90E4A0F4803
:1082200001A900F0B3F9044660B90C48012100F03F
:108230009FFA01230A4A0948194600F001FA094B3E
:1082400001221A70204602B010BD00BF8013030047
:1082500064290020BC29002045830200B0220020B0
:10826000FFFF7F006029002030B56AB103684FF03E
:10827000FF344FF0FF355A614A1E5142C3E90245AF
:1082800051411961002030BD0720FCE7F7B50446D5
:1082900000250DF1070017460E468DF8075000F037
:1082A0002DF9D4E90223B3F1FF3F08BFB2F1FF3F3C
:1082B00007D1FFF717FF301841F10001C4E90201AF
:1082C00001259DF8070000F03DF955B12369A7612C
:1082D00003B126612146002003B0BDE8F040FFF75E
:1082E0001DBF284603B0F0BD37B5054600240DF18B
:1082F00007008DF8074000F001F9D5E90223B3F13A
:10830000FF3F08BFB2F1FF3F1FBF4FF0FF324FF0FA
:10831000FF33C5E9022301249DF8070000F012F99C
:1083200034B12946012003B0BDE83040FFF7F6BE66
:10833000204603B030BD0000014800F036BA00BF4F
:10834000B02200202DE9F743064600F019FA40B1AB
:10835000624AD2E9003113F1807341F10001C2E9B0
:1083600000310021304600F01AFA38B15C4C236825
:1083700023B12068FFF7EEFE002323600121304681
:1083800000F00DFA20B1FFF7ADFE564BC3E9000136
:108390005548534C01A901F002FA4FF0FF384FF055
:1083A000FF39A0B9DFF844814D4D404602F0FFF897
:1083B000002800F08580D0E90223B3F1FF3F08BF19
:1083C000B2F1FF3F32D1404602F0EBF8EDE703781F
:1083D000012B20D0022B08D1444D284602F0E1F8B1
:1083E000002877D0C0E90289F7E75BB94168D1E995
:1083F0000223B3F1FF3F08BFB2F1FF3F02D03B4879
:1084000002F0BFF801A9384801F0F4F901A9364893
:1084100001F0C5F9C5E741682368994202D10023FC
:108420002360EFE7314802F0C5F8EBE7296891B126
:108430002968D1E9020182428B412FD22B68D3E90E
:108440000223B3F1FF3F08BFB2F1FF3F03D0296819
:10845000404602F096F8404602F0A3F8D0E90249FF
:108460000746FFF73FFE201A69EB0109012879F161
:10847000000318DBB0F5350F13D3FFF75DFF1C4A7F
:1084800002441C484FF49603002100F0F9F890B91B
:108490002B6813B9304600F0CBF82F6003B0BDE86D
:1084A000F0832246EDE71348002100F06EF93846CC
:1084B000FFF750FE01E00D28F9D000232B6074E790
:1084C000074B1B68002BE9D1304603B0BDE8F043F1
:1084D00000F0B2B8084B01221A7093E75829002027
:1084E000D8290020D0290020BC29002084130300B3
:1084F000FFFFB400B02200206029002070B5EFF328
:10850000108672B60C4A946801239CB993600B4B99
:108510000B4DD3F8801029401160C3F88050D3F878
:10852000841051604FF0FF32C3F88420047006B904
:1085300062B670BD0370FAE7DC29002000E100E0BC
:10854000FC06FFBD084B9A6810B55AB150B9EFF35D
:10855000108172B6054A1C6814605C6854609860AB
:1085600001B962B610BD00BFDC29002000E100E0C7
:10857000435882B03BB10023435043580193019BC1
:10858000012002B070471846FBE70000F8B5204B09
:108590004479204E43F824201F4A204B06EBC404A4
:1085A0009B1A2279DB081B0432B143F002001C49FC
:1085B000FFF74AFA0820F8BD02680C88C2F808459F
:1085C00090F904508A7804795201002DD2B219DB57
:1085D00014494F1987F8002301226D0904F01F0484
:1085E00002FA04F441F82540427906EBC201012465
:1085F00046F832000C7143F003000B49FFF724FAF0
:108600000020D8E7094904F00F040A55ECE700BF41
:10861000F0290020E82900203C1103007411030018
:108620009013030000E100E0B213030014ED00E03A
:10863000036801221A607047036801225A6070477C
:1086400073B501F15005AD000068ADB24FF4803450
:108650008C400026C0F80843C0F84843465101F555
:10866000A8714559019522F07F42019D40F82120D3
:10867000C0F844430BB1C0F8044302B070BD000021
:108680002DE9F74F0D4622F07F4402684FF4803702
:1086900005F150068F408046B60002EB8500C2F817
:1086A0004873B6B2C2F80873D2F8041599464FF071
:1086B000000BD0F84035C0F8401542F806B05B1A00
:1086C0009259009223F07F43012B009A4FEA850ACA
:1086D0000CD1264B4FF4806043F001039847D8F843
:1086E000003043F806B09B590193019BD8F8001065
:1086F000D1F80465C1F84473A31B23F07F43012B19
:108700001CD11A4B05F5A875013443F0010341F85B
:1087100025404FF480609847D8F80030D3F80435EE
:108720009E4209D1D8F800300020C3F84473C3F842
:10873000047303B0BDE8F08F0D20FAE78A44C9F155
:10874000FF13CAF84045D1F80405221A013A22F075
:108750007F4203F57F439342EED3002AE2D10134F6
:10876000CAF84045D1F804359842DAE7D01303003F
:1087700003680222C3F8442309B1C3F804237047F5
:1087800000684FF48271FFF7F3BE4FF4803303FAB1
:1087900001F10368C3F84813C3F808137047503158
:1087A0008900006889B2FFF7E3BE0368D3F80405C7
:1087B0007047000090F90430002B09DB5A090121B1
:1087C00003F01F0301FA03F34032024941F822305B
:1087D000704700BF00E100E0024B034A1B681068CD
:1087E000184700BFF0290020E829002070B5064D89
:1087F0000646002455F8043B0BB130469847013437
:10880000042CF7D170BD00BF002A00204388033339
:1088100000EB830399420BD382884FF6FF739A4291
:1088200008D0038833B18068431C584258417047D0
:108830000220704701207047033080B240F2FE33BF
:10884000984230B51FD8134B1A783AB91C895D8904
:108850002C440444A4B2B4F5806F0AD91A7DAAB995
:108860009A8BDC8B2244024492B2B2F5806F0DD811
:1088700001220A801446142202FB04335A89104450
:108880005881002030BD48F20860FBE748F20660DE
:10889000F8E700BF342A00200B4A0C495388142003
:1088A00000FB0311CB6833B9042049681070012222
:1088B000074801F063BB07490523137002238B802F
:1088C000012209680023F3E7182A0020342A002037
:1088D00060220020FC2A002007B5002305490093F0
:1088E000054A09680548082301F0AEFA03B05DF8AF
:1088F00004FB00BFFC2A0020E413030060220020D8
:1089000007B5002301460093034A0448082301F0F9
:108910009BFA03B05DF804FBDC1303006022002027
:1089200013B500230C4600930146084A0848042367
:1089300001F08AFA38B9074B142101FB04310123F5
:108940000B7402B010BD48F20D60FAE7D8130300B3
:1089500060220020342A002037B50A480A4B4268BA
:108960009C88196853880325033305709BB2002047
:1089700000909B0001EB8401044801F065FA03B00C
:1089800030BD00BF182A0020FC2A002060220020F1
:1089900010B50146044800F0C8FE1C220446002120
:1089A00008F023FB204610BDE82A002068B10268C9
:1089B000084B9A4209D14068074B984207D00133CF
:1089C000984214BF03200120704703207047002005
:1089D000704700BFDEC0ADDEFE011EF12DE9F041A3
:1089E0000D460223154F2B80164600F5805100F1ED
:1089F00008044FF001088C420ED2236801330BD0DB
:108A00002046FFF703FF48B10EB186F80080022828
:108A100009D14FF480632B80BDE8F081A3683A68E8
:108A2000934200D93B602B886288033313442B8028
:108A30006388033304EB8304DDE700BF2C2A0020A6
:108A400038B5144B14220D4602FB00302B684468E5
:108A500004F58051A3B15C88033403EB84048C4299
:108A600015D22368013312D02046FFF7CFFE01282C
:108A700008D002280BD00028F1D12C60012038BD8D
:108A80000834ECE76388033304EB8304E7E7002052
:108A9000F5E700BF342A0020426873B504460D464E
:108AA0006AB3234BD9688A4229D31B699A4226D8D4
:108AB00012F0030323D11F490089098988421ED17E
:108AC0002068916888421AD11B4841688A4203D9BC
:108AD00001F580518A420DD381698A420CD901F592
:108AE00080518A4208D201222A80B3FA83F04009D9
:108AF00002B070BD1A46F7E748F20963F5E70026B1
:108B00002E800196288801A9FFF79AFF30B92B889B
:108B100001339BB2012B2B80F3D9E9E7019B22683B
:108B200099689142EED16360024B1B892381DFE794
:108B300060220020182A0020342A00202DE9F84362
:108B40001C461D4B1B7806460F46154673B382B371
:108B50007CB3DFF86C804FF01409A388012B02D995
:108B600048F2096020E009FB03F318F803302BB941
:108B7000A0882146FFF764FF20B92060A388013355
:108B8000A380EAE723681EB1998832889142EFD129
:108B90001FB119883A889142EAD19A68C5E9002341
:108BA000064B1B892B810020BDE8F88348F2016049
:108BB000FAE748F20460F7E7102A0020182A00209C
:108BC000342A002008B5074B5888191DFFF738FFD5
:108BD00018B1BDE80840FFF7BFBEBDE80840FFF789
:108BE0005BBE00BF182A00202DE9F0479F4FDFF839
:108BF000A08288B006463B6823B99D48414600F0F4
:108C0000CEFD38603D6829784B1E052B07D8DFE87C
:108C100013F0200074007400060106015D0148F2A3
:108C20000E641422002103A808F0DFF941F61D5359
:108C30009C4208BF00243B6804941A78023A042A34
:108C400000F2FC81DFE812F0DD01E9010B02130202
:108C50001A022EB1874B00225A604FF40644E0E717
:108C60002B79032B1CD8DFE803F014022A35824A43
:108C70001378022B1AD0137D022B4FF0010317D16A
:108C800014214B43D1180020D0544868FFF738FE18
:108C900003E001232B71FFF71FFE002800F0B980CD
:108CA000744B00225A6048F20D64BAE70023E7E7EC
:108CB000704A13700023536041F61D54B1E76F49A9
:108CC0006F48002302222B718A800968012201F07B
:108CD00055F9E2E76B4B684C5B88684A14214B43BB
:108CE000E11800262E714D6810681560958848605F
:108CF0000D810221E6549180C8E7B5F814A0AA7D41
:108D0000DFF87491AEB1022AEB8806D9142101FB79
:108D10000A91DA1C088902440A81142202FB0A998A
:108D2000C3F57F43B9F80A20FD331344A9F80A308C
:108D300093E7142303FB0A9318895C6804EB80040F
:108D4000062A69D8DFE802F0274E36441D5A04008F
:108D500041F61D54AA7DEB88022A06D9142101FB95
:108D60000A91DA1C088902440A81142202FB0A993A
:108D7000C3F57F43B9F80A20FD331344A9F80A303C
:108D80004FE74148414900234360AB690360FFF767
:108D900083FE00285BD00223AB75002300930423DD
:108DA000EA182146364801F04FF8002831D048F241
:108DB0000D64CFE72B69002B14BF03230123AB7590
:108DC0000023009305F10C02042304F10801E9E7F4
:108DD0000123AB750022EB8800922A699B0004F105
:108DE0000C01DFE703290CBF05230623AB75002325
:108DF0000093042305F10802E118D3E70623AB75BD
:108E0000224B1988204B5868FFF78AFD044600283A
:108E1000A0D108B0BDE8F08748F20E649AE7002EB2
:108E20007FF41BAF2B79012B34D0022B3FF444AFDE
:108E3000002B7FF4F4AE02232B710DF10A01EB68D5
:108E4000039303A8CDE90466FFF726FE10B948F2A4
:108E50000964E6E60498BDF80A108388EB8003886D
:108E60002B81FFF75DFD044629E000BF302A00207A
:108E7000E82A0020102A0020342A0020FC2A0020A2
:108E800060220020182A0020F4290020082B00204E
:108E9000282A0020DFF8009203AA4B463146A81D7D
:108EA000FFF74CFE044670B9B9F804100498FFF7B8
:108EB00037FD044648F209639C423FF4FDAE002CA6
:108EC0007FF4AFAEA5E7C9E90066F3E7002E7FF4B3
:108ED000C4AE6C4B1A7BBAB11E731A78013A062ADB
:108EE0003FF69DAE01A151F822F000BF978F02001E
:108EF000BD8F0200DB8F0200E18F02001F8C020099
:108F0000E78F0200F98F02001A78072AE5D801A13D
:108F100051F822F0358F0200DB8E0200DB8E02005A
:108F20005B8F02006F8F0200938F0200938F02000D
:108F3000578F02001A89544901321A8100225A803F
:108F40001A730A78B2FA82F252099A720A7DB2FA58
:108F500082F25209DA72012207E04C4958688A8885
:108F60004088033202448A8002221A70B5E75C8886
:108F7000454A4649142505FB042208685468506098
:108F80008888108102200C608880002111740622DC
:108F9000EBE70722E9E79A7A32B9DA7A8AB900224E
:108FA0001A705A805A6087E6374900229A72CA6856
:108FB000002AF2D1097C0029EFD05A80FFF702FE87
:108FC00051E70022DA72304A116A0029E7D192F89B
:108FD0002420002AE3D00122EFE7FFF7BDFC42E79F
:108FE000FFF75AFC3FE75A88274B142101FB023355
:108FF0005868FFF785FC36E700225A60FFF76CFCE3
:1090000031E701228DF80C201A89ADF818209A88D2
:10901000DB68ADF81A20059310E002228DF80C20D1
:109020001A89ADF818209A88ADF81A20DA689B7D65
:1090300005929A1F534253418DF81C3003A8FFF745
:10904000D5FB0026414612483E6000F0D3FB114894
:10905000012100F089FC00287FF4CDADD9E6032280
:109060008DF80C20DA88ADF818201A89D0E7042290
:109070008DF80C20DB88ADF81830DFE705238DF87C
:109080000C30DBE7182A0020342A0020FC2A0020BC
:10909000E82A0020F82A00200C2B00204068FFF767
:1090A000A3BD000008B50548012100F045FC18B932
:1090B000BDE80840FFF798BD08BD00BFF82A0020B2
:1090C0002DE9F3419846374B1B7806460D46002B99
:1090D0005CD000295DD009884FF6FF7399425BD0C0
:1090E0006B88002B58D06B689B0758D14AB92F89E1
:1090F0000DF102013846FFF79FFB30B102B0BDE829
:10910000F08113885788ADF8023001A8FFF740FCC2
:10911000044660B9BDF80220234B142101FB023341
:1091200058890338C01B588148F20760E6E780F889
:10913000008000238375BDF8023083826B68036171
:1091400001211A4800F004FC2B882381B8F1030F99
:109150006B88A38004BF0423A3754FF0000508BFEC
:109160003368E06008BFA3611148E780658101A909
:1091700000F005FB36B1E36833600E4B75601B8968
:10918000B5723381FFF78EFF0020B7E748F2016028
:10919000B4E748F20460B1E748F20360AEE748F292
:1091A0000260ABE7102A0020342A00202C2A00207D
:1091B000E82A0020182A002008B50346074802685C
:1091C000042A08D00168064A42F82130012100F043
:1091D000BFFB002008BD48F20B60FBE7042B00201A
:1091E000002A00202DE9F04FDFF8208289B01422F8
:1091F000002103A807F0F9FE98F8003003F0FF0201
:1092000000923BB103A8FFF7F1FA0027384609B0F6
:10921000BDE8F08F08F1040000F0B2FB0028F4D1A3
:10922000009BDFF8ECA1D3F8F83F5C1C08BF4FF0BF
:1092300010234FF0805208BF5B6911695269581CB6
:1092400008BF02FB01F3CAF810306949A3F5405387
:1092500000225046CAF80C3000F0C4FD0746002832
:10926000D4D11C2363496448DFF8A8B18C2200F0F4
:1092700027FA0323B9463D4601933C46DAF80C60D1
:109280004E443046FFF792FB012867D0032817D0E1
:1092900000283DD159494FF0140C0CFB04FC01EBA4
:1092A0000C0201F80C0056600CF110020CF1080CD5
:1092B0000A4430466144FFF791FB45F002054AE05D
:1092C0003268531C02D04E4B9A4239D1321D06F5FA
:1092D00080511068013033D104329142F9D1DBF86A
:1092E00000203AB902220123CBF80060ABF8042039
:1092F00000930BE014226243404B022099189854CB
:10930000404A4E60548001340881A4B245F0010502
:1093100009F58059B9F5405FB0D1019B012B98BF89
:109320000025EDB2022D03D0062D36D0002D3ED102
:10933000002388F8003048F20A67C8F8043065E76F
:10934000019B2E495A1E93B214226243881801933E
:109350004660032088540134A4B2D9E7009B6BB166
:10936000264B14226243991802209854DBF80020FF
:109370004A60244A088154800134A4B20022224960
:10938000CBF800603046FFF729FBBBF80420022A27
:109390000CBF042208221543BAE7012388F80030E5
:1093A00003A80023C8F80430FFF720FA2EE702A82C
:1093B000FFF7EEFAC8B10123013D03700A2D09D869
:1093C000DFE805F006080608070807080F110F0078
:1093D0000023037102A9084800F0D1F9FFF762FEEB
:1093E00014E70323F5E70223F3E748F207670DE7E5
:1093F000D81503005C2A0020E82A0020342A002027
:10940000DEC0ADDE182A0020002B0020102A00202C
:1094100060220020FC2A002073B50D460446C8B126
:10942000C1B10DF10601FFF737FBB0B1BDF8063051
:109430000B486668142202FB030001210C3000F087
:1094400087FA63682E600C336B600123A3720020DF
:1094500002B070BD48F20460FAE748F20960F7E72D
:10946000342A002013B50446A8B10DF10601FFF718
:1094700013FB98B1BDF806200B4B142101FB0233FE
:10948000DA6872B1A27A62B1DA680020013ADA6071
:10949000A07202B010BD48F20460FAE748F2096019
:1094A000F7E748F20560F4E7342A0020022300229F
:1094B000FFF706BE18B103230022FFF701BE48F2F2
:1094C00004607047114B1B7813B50446ABB14FF6DF
:1094D000FF73984214D001A8FFF75AFA98B10523F8
:1094E000037001230371C48001A9094800F047F902
:1094F000FFF7D8FD002002B010BD48F20160FAE786
:1095000048F20360F7E748F20760F4E7102A00200A
:10951000E82A00200F4B1B7807B5A3B101A8FFF77D
:1095200037FA98B10623037001A90B4800F027F918
:109530000A4B1A780AB101221A73FFF7B3FD002013
:1095400003B05DF804FB48F20160F9E748F20760F8
:10955000F6E700BF102A0020E82A0020182A002081
:1095600007B5ADF80600ADF804100DF1060001A92D
:10957000FFF7E4FA03B05DF804FB07B51346ADF856
:1095800006000A4600200DF10601FFF7D7FA03B0E6
:109590005DF804FB07B51346ADF806000A460DF169
:1095A00006000021FFF7CAFA03B05DF804FB20B102
:1095B00019B103680B600020704748F204607047DF
:1095C0002DE9F84F3C4B1B780446002B6DD000284A
:1095D0006ED0DFF8E8901222002107F006FD032389
:1095E00023804FF0000A4F4614264FF00108D9F8A7
:1095F0000410B9F80AB0B9F808500846FFF7D6F9D0
:10960000032808BF2388628804BF03F1FF33238047
:1096100006FB0A735D44DB681344638023899B4423
:109620006389A4F808B0ADB22B446381C5F58065A9
:10963000A389ADB2AB4238BFA58101F1080501F5A0
:109640008051A94229D92B68013326D02846FFF73B
:10965000DDF801280AD0022815D00028F1D1A3880E
:109660000133A3800AE04FF0010AC0E7E388013329
:10967000E380E3896A8803331344E3816B8803330F
:1096800005EB8305DDE7E38884F810804D1BE18955
:10969000013301EBA501E380E18109F11409BAF17D
:1096A000000FE0D00020BDE8F88F48F20160FAE733
:1096B00048F20460F7E700BF102A0020342A002097
:1096C00010B561B1B2FBF3F403FB1424A4B244B9A6
:1096D000C0E9001484608281C381204610BD0E2041
:1096E000FCE70920FAE782B050E8022FC188B2EB0C
:1096F000324F4FF0000317BF92B241EA014142EAF4
:10970000014104E04268B2EB324F08BF012340E858
:109710000212002AE8D18DF807309DF80730002B9F
:109720000CBF1120002002B0704737B550E8013F50
:109730009DB2C48925448489A54228BF2D1B048974
:10974000A54202BFBFF32F8F002207E0C5EA030541
:1097500040E80154002CE9D14FF001028DF80320BC
:109760000193019A0A609DF8031001F0FF0321B1F3
:10977000006810FA82F003B030BD1846FBE70A8893
:109780004B889A4209D150E8012FC2EA024240E8D0
:109790000123002BF7D1012070470020704737B517
:1097A00050E8023F1FFAA3F5C488A54202BFBFF3E9
:1097B0002F8F00220DE0C48925448489A54228BF4B
:1097C0002D1BC3EA054540E80254002CE8D14FF0B8
:1097D00001028DF803200193019A0A609DF803109D
:1097E00001F0FF0321B1006800EB124003B030BD6F
:1097F0001846FBE70A884B889A4209D150E8022FA5
:10980000C2EA224240E80223002BF7D10120704730
:109810000020704701F01F024B090121914000EB2D
:10982000830000F065B84B0910B501F01F04012159
:10983000A14000EB830000F04FF8E04000F0010091
:1098400010BD01F01F0301229A404B0900EB830079
:10985000D14300F065B84B0901F01F0150F8230017
:10986000C84000F0010070472DE9F0474F1E7F0906
:1098700080460E460137002558F8254008EB85093B
:10988000E44394FAA4F4B4FA84F44FEA451A202C81
:1098900006D10135AF42EFD834462046BDE8F08707
:1098A0005444A642F5D921464046FFF7BCFF0028A4
:1098B000F3D0D9F80040E44394FAA4F4B4FA84F461
:1098C000E5E710B5034653E8000F0A4643E80024D5
:1098D00094F0000FF7D110BD10B5034653E8000F08
:1098E00040EA010243E8002494F0000FF6D110BDD5
:1098F00010B5034653E8002F42EA010043E8000494
:1099000094F0000FF6D110BD10B5034653E8000FD8
:1099100000EA010243E8002494F0000FF6D110BDE4
:1099200010B5034653E8002F02EA010043E80004A3
:1099300094F0000FF6D110BD10B5034653E8000FA8
:1099400000EB010243E8002494F0000FF6D110BDB3
:1099500010B5034653E8002F02EB010043E8000472
:1099600094F0000FF6D110BD10B5034653E8002F58
:10997000A2EB010043E8000494F0000FF6D110BD03
:109980000121FFF7A9BF0121FFF7B2BF0021FFF7B7
:10999000BBBF10B590B1D0E9012301689B1ADBB2BF
:1099A0000A60013BDBB2FF2B026802D1002010717C
:1099B00010BD11684C1C14600B70F2E70E20F7E725
:1099C00037B5054600240DF107008DF80740FEF776
:1099D00095FD2A686B68116899420ED9481E10607F
:1099E00011F8013CEC68298A01FB0344AB6811794A
:1099F0001B1ADBB2994238BF13719DF80700FEF7BE
:109A0000A1FD204603B030BD37B5054600230DF15A
:109A100007000C468DF80730FEF770FD2A681368C2
:109A2000591C1160E968641A298AB4FBF1F41C70AE
:109A30009DF80700FEF786FD03B030BD826810B5C3
:109A400004462AB143690168006998470023A3606E
:109A500010BD0EB403B5039921B104AB01AA019363
:109A600000F076F802B05DF804EB03B070470A2905
:109A700038B504460D4602D10D21FFF7F8FFA36863
:109A80002268591CA160D554D4E901329A4204D30A
:109A90002046BDE83840FFF7D1BF38BD2DE9F84F6B
:109AA0009846DDE90A43154682460F460A464FF0BE
:109AB0000109AA420FD2C14538BFC14613F0010BBC
:109AC00001D16CB900240126B8F1010F1BD908F1AE
:109AD000FF386E43F8E709F10109B2FBF5F2E8E758
:109AE0009B070ED5B8F1000F0CBF30262026A145EC
:109AF000E9D2013C31465046FFF7B9FF002CF6D1C0
:109B0000E0E72026F3E7B7FBF6F39D42E1D9DFF863
:109B10003C80B7FBF6F3504618F8031006FB1377AA
:109B2000FFF7A5FF3346AB42B6FBF5F6F1D2BBF12A
:109B3000000F02D00CB1A14501D3BDE8F88F202160
:109B40005046013CFFF793FFF4E700BFEC1303001E
:109B50002DE9F74F054617468846002900F03E815B
:109B600018F8011B49B92B7B002B00F037812846E0
:109B700003B0BDE8F04FFFF761BF252940F0B78083
:109B8000002698F800302D2B424608F1010823D01A
:109B9000302B24D02B2B25D000242A2B02F10101BD
:109BA00023D13B681A1D1B683A601C440A4613788F
:109BB0002E2B26D101324FF0000A104610F8011B5F
:109BC000A1F1300CBCF1090F1DD80A2303FB0A13C5
:109BD000A3F1300A0246F0E746F00106D1E746F06D
:109BE0000206CEE746F00406CBE711F8013CA3F1EC
:109BF00030000928DBD80A2202FB0434303C0A4634
:109C0000CBE74FF0000A12F8011B01F0FB006828B7
:109C10009046F8D0782909D86F290CD8632962D0EA
:109C200022D8252963D0582900F0888098F8003080
:109C3000002B95D197E770390829F7D801A353F87D
:109C400021F000BFB79D02002D9C02002D9C020058
:109C50004D9D02002D9C02002B9D02002D9C0200B8
:109C60002D9C02003D9D0200642901D06929DDD1AF
:109C70003A68D2F80090111D89EAE9723960A2EBC6
:109C8000E9724FF0010B092A35DCD34538BFD346C2
:109C90002CB1B9F1000F01DB720700D5013CB3070D
:109CA00002D5BAF1000F03D0F00701D44CBB002459
:109CB000B9F1000F2DDAC9F100092D212846FFF76F
:109CC000D6FE06F00302022A04D1BAF1000F01D138
:109CD0001CBB0024CDE9004653460A2249462846CB
:109CE000FFF7DCFEA2E73B681A1D19783A602846A8
:109CF000FFF7BDFE9AE70A230BF1010BB2FBF3F26B
:109D0000C1E7A345D4D220212846013CFFF7AFFE8E
:109D1000CCE77107D5D52B21D0E7A345DAD2302186
:109D20002846013CFFF7A3FED2E73968CDE900469B
:109D30000A1D3A6053460A220968D0E739680A1DAD
:109D40003A60CDE9004653461022F5E73B681A1DFC
:109D50003A6016F00106D3F8009024D1B9F1000F53
:109D600003D0484607F074F90646B4421DD809F1FD
:109D7000FF3919F8011F00293FF458AF2846FFF7B3
:109D800076FEF6E728460136FFF771FE19F8061051
:109D90000029F7D1A642BFF449AF20212846013C53
:109DA000FFF765FEF6E70026F0E720212846013C94
:109DB000FFF75DFED9E73B681A1D3A60302128465F
:109DC0001C68FFF754FE78212846FFF750FE00225A
:109DD0000823CDE900322146102280E703B0BDE818
:109DE000F08F00BF13B50B46114680B9104B1148D8
:109DF000114AC01A0E23C0080093104B00041049EA
:109E000040F00100FDF737FE0E2002B010BD4BB947
:109E1000074B08480B4AC01AC0080E2300930004E1
:109E2000064BECE703601B6802B0BDE81040184722
:109E30003C1103008C110300FC130300B815030050
:109E400001140300301403002DE9F743DDF82880E6
:109E500088B93E4B3E483F4AC01AC0080E243E4BCC
:109E6000009400043D4940F00100FDF704FE204647
:109E700003B0BDE8F0834AB9344B3548384AC01ABC
:109E8000C0080E24344B00940004EBE7D0F800E047
:109E9000BEF1000F09D12D4B2D48324AC01AC0081F
:109EA00008242D4B00940004DCE74BB9274B2848CD
:109EB0002D4AC01AC0080924274B00940004D1E79A
:109EC0004568D5F80490B3FBF9F509FB15354DB19C
:109ED0001E4B1F48254AC01AC00809241E4B009477
:109EE0000004BFE78D0709D0184B1948204AC01A53
:109EF000C0081024184B00940004B3E712F0030FBD
:109F000009D0124B12481B4AC01AC0081024124B29
:109F100000940004A6E7C568A9420DD34D1EEC18B5
:109F20000569AC4208D8CDF82880DEF80C40A4467C
:109F300003B0BDE8F0436047044B05480E4AC01A21
:109F4000C0081024044B009400048BE73C1103006C
:109F50008C110300FC130300A5150300011403007A
:109F60007E1403002A1403003D140300841403002C
:109F7000AE140300C6140300E9140300F7B580B95A
:109F80002A4B2B482B4AC01AC0080E242A4B009497
:109F900000042A4940F00100FDF76DFD204603B0A2
:109FA000F0BDD0F800C0BCF1000F09D11F4B204814
:109FB000234AC01AC00808241F4B00940004E8E795
:109FC0004AB91A4B1A481F4AC01AC00809241A4B2A
:109FD00000940004DDE74568D5F800E00EF1FF3598
:109FE0000D4209D0114B1248174AC01AC00810245C
:109FF000114B00940004CCE7C568A9420CD34D1E58
:10A000000EFB02540569AC4206D8DCF81040A446A9
:10A0100003B0BDE8F0406047044B05480B4AC01A46
:10A02000C0081024044B00940004B2E73C11030064
:10A030008C110300FC1303009215030001140300AC
:10A040002A1403003D140300101503003615030005
:10A0500029DF704728DF704770B503689E6886B0B7
:10A0600004460D466EB114220021684606F0BDFF7D
:10A07000A3680593237901952BB1012B0DD0684678
:10A08000B04706B070BD01238DF8003023690293FC
:10A09000E368039363690493F1E702238DF80030CA
:10A0A000E3681B030293F5E70846704700207047FA
:10A0B000024B187A003818BF01207047B02B0020DF
:10A0C000034B187A0122B0FA80F05A7440097047A5
:10A0D000B02B002008B510461A4606F05DFF0020A0
:10A0E00008BD000008B514220021044806F07DFFD9
:10A0F0000348FFF7F8FA002008BD00BFB02B00208E
:10A10000A02B002010B5094C094B43602046FFF7F7
:10A1100037FC40B906F0E6FC064920741C230648CB
:10A120008C22FFF7CDFA002010BD00BFB02B00201D
:10A13000CC150300142B0020A02B002038B5234D94
:10A14000234C2B7A3BB923492348FFF728FB206097
:10A1500008B9686038BD022324682B72237973B173
:10A16000012B24D020460321FFF776FF00232B721A
:10A170006B6018491848BDE83840FFF73BBBD4E98D
:10A180000523D21AB2F5805FD4E9031028BF4FF43B
:10A1900080529208012A38BF012219441844FFF75F
:10A1A00057FF50B11128DDD101232B72D2E7D4E93A
:10A1B00003031844FFF74EFFF3E72B7C002BC9D1B4
:10A1C000BDE83840022000F009B800BFB02B0020E5
:10A1D000C82B0020C42B0020A02B002038B5234C16
:10A1E000237A002B41D0022B09D1032830D0204BF9
:10A1F00000221B68E2601A793AB1012A22D0637CFE
:10A200007BBBBDE83840FFF799BFD3E905128D1A33
:10A21000B5F5805F94BF521902F580529A61914260
:10A22000EDD102284FF0000308BF19462372104BEE
:10A2300018BF0D211868FFF70FFF0E490E48FFF7F2
:10A24000D9FADCE71A6901321A615B699A42E7E7D9
:10A25000E3680133082B01D8E360D0E70023E36013
:10A26000DFE7BDE8384006F02DBC38BDB02B00203C
:10A27000C82B0020C42B0020A02B0020831E012B04
:10A2800001D8FFF7ABBF704700F0FD03012B08D1E9
:10A29000044B00225A74421E504250411874FFF77A
:10A2A0004DBF7047B02B002010B5064C201DFFF7A6
:10A2B00067FB28B9637C1BB9BDE81040FFF73EBFC0
:10A2C00010BD00BFB02B00202DE9F34180460D46A4
:10A2D000104801A916461F46FFF727FA0446B0B1F9
:10A2E00018220021043006F080FE2D0B012323717B
:10A2F00001A90848C4F80080A760E5606661FFF71F
:10A300003EFAFFF7D1FF002002B0BDE8F081042043
:10A31000FAE700BFA02B00202DE9F34180460F464D
:10A320000F4801A916461D46FFF7FFF90446A8B1DC
:10A3300018220021043006F058FE089BA36001A9F2
:10A34000C4E903670648C4F800806561FFF717FA9F
:10A35000FFF7AAFF002002B0BDE8F0810420FAE771
:10A36000A02B00202DE9F84FB0F806A04579D2F8CF
:10A3700000B09DF828900AFB05F5043D88460BEBDC
:10A380000301A94203F1040488BFA5EB030BB4FB4E
:10A39000FAF607460AFB1644C2F800B04EB9AAEB1B
:10A3A00004055D4528BF5D46BBF1000F04D1BDE843
:10A3B000F88F3F68013EF1E7043408EB06003C44A7
:10A3C0002A46B9F1000F0DD02146ABEB050B06F084
:10A3D000E3FDDA452E443F6855464FF0000428BFA0
:10A3E0005D46E1E701462046EFE7FFF7D2BAF8B550
:10A3F00046790146721E0546002393422D6803D319
:10A400000024A64202D8F8BD0133F6E70F682846BB
:10A41000FFF7FAFA01343946F3E72DE9F843068AE3
:10A42000CD1C0746FFF7CCFA043E35440446B5FB85
:10A43000F6F5F0B14FF48073EDB28380C680013D34
:10A44000076081464FF00008A84512D23846FFF752
:10A45000B7FA064648B163790133637108F1010820
:10A46000C9F8000007608146EEE72046FFF7BFFF0E
:10A4700034462046BDE8F88301210430FFF768BA6E
:10A4800010B5012104460430FFF76EFAC0B220B9BE
:10A490002046BDE81040FFF7AABF10BD1FB50392CC
:10A4A0000022009203AAFFF75DFF05B05DF804FBF0
:10A4B0001FB503920122009203AAFFF753FF05B0D4
:10A4C0005DF804FB41DF7047064B10B500241C709B
:10A4D000054B1C60BFF35F8F0449054800F03BF853
:10A4E000204610BDD42B0020D82B002004160300DA
:10A4F000CC2B002007B500230DF107008DF80730A5
:10A50000FDF7FCFFF1EE103A23F09F03E1EE103A65
:10A51000BFF35F8F0A4B4022C3F884219DF80700E8
:10A52000FEF710F806F0DEFA20B103B05DF804EB98
:10A53000FFF7C8BF20BF40BF20BF03B05DF804FBDA
:10A5400000E100E0836800225A60C3E904229A60B7
:10A55000DA601A6070470B684A684360934208BF2C
:10A560000023016008BF43607047436843B102683D
:10A57000916852680B449342436004BF00234360D8
:10A58000704770B5446806460D46206818B1B36838
:10A590002946984718B923682B60256070BD246848
:10A5A000F3E74368186808B102681A6070474368A7
:10A5B000186870474368186800B97047884203D12B
:10A5C00002681A600120704703460068F4E7000043
:10A5D00010B50D49A1F59472914201D800200FE009
:10A5E0008C1AE30F03EBE4035B1002EBC30452F895
:10A5F0003330834205D802D204F10802ECE76068E8
:10A6000010BD2146E8E700BF101B030008B5FFF7A7
:10A61000DFFF024B002808BF184608BDD31903000E
:10A620004FF08053D3F83001A0F10803584258414D
:10A63000704700004FF08053D3F83021082A06D12C
:10A64000D3F83431052B02D8024AD05C7047002081
:10A65000704700BF161B0300024AD2F80034002BDB
:10A66000FBD0704700E0014010B5FFF7D9FF40B1C3
:10A670004FF080430022C3F80C21C3F81021C3F827
:10A680003825FFF7CDFF002846D04FF08052654BAC
:10A69000D2F80414C3F82015D2F80814C3F824150E
:10A6A000D2F80C14C3F82815D2F81014C3F82C15DE
:10A6B000D2F81414C3F83015D2F81814C3F83415AE
:10A6C000D2F81C14C3F84015D2F82014C3F844156E
:10A6D000D2F82414C3F84815D2F82814C3F84C153E
:10A6E000D2F82C14C3F85015D2F83014C3F854150E
:10A6F000D2F83414C3F86015D2F83814C3F86415CE
:10A70000D2F83C14C3F86815D2F84014C3F86C159D
:10A71000D2F84424C3F87025FFF78CFF18B1424BE0
:10A72000424AC3F88C26FFF785FF18B1404BFB2245
:10A73000C3F81825FFF77EFF70B14FF080414FF04E
:10A740008053D1F8E42ED3F8583222F00F0203F0F0
:10A750000F031343C1F8E43EFFF76CFF20B1354B04
:10A760004FF40072C3F84026FFF75AFF48B14FF08C
:10A770008043D3F80024D20744BF6FF00102C3F82E
:10A7800000242D4AD2F8883043F47003C2F8883090
:10A79000BFF34F8FBFF36F8F4FF08053D3F830214B
:10A7A000082A0ED1D3F83431052B02D8234AD35CC2
:10A7B0003BB14FF01023D3F808224FF08043C3F889
:10A7C00058254FF01023D3F80022002A03DBD3F8DA
:10A7D0000432002B22DA1A4901234FF01020C1F86D
:10A7E00004351224FFF738FFC0F80042FFF734FFAA
:10A7F000C0F80442FFF730FF0023C1F80435FFF72B
:10A800002BFFBFF34F8F0C490E4BCA6802F4E06276
:10A810001343CB60BFF34F8F00BFFDE70A4B0B4ADA
:10A820001A6010BD00C00040005000404881030085
:10A8300000F000400090024000ED00E0101B03001B
:10A8400000E001400400FA05B82200200090D00387
:10A85000074B1B5C1F2B8ABF064A4FF0A04203F038
:10A860001F03D2F80405D840C04300F00100704730
:10A87000201B030000030050074B1B5C1F2B86BFEF
:10A88000064903F01F034FF0A041012202FA03F32F
:10A89000C1F80C35704700BF201B030000030050B7
:10A8A000074B1B5C1F2B86BF064903F01F034FF0AD
:10A8B000A041012202FA03F3C1F80835704700BF36
:10A8C000201B03000003005008B50020FFF7E8FF3D
:10A8D0000120FFF7E5FF0220FFF7E2FFBDE8084097
:10A8E0000320FFF7DDBF08B50020FFF7C5FF0120FB
:10A8F000FFF7C2FF0220FFF7BFFFBDE808400320BB
:10A90000FFF7BABF0A4B185C1F288ABF094B4FF0EC
:10A91000A04300F01F00D3F804250121814021EA63
:10A9200002000A40C3F80805C3F80C25704700BFB1
:10A93000201B030000030050074B1B5C1F2B8ABF2A
:10A94000064A4FF0A04203F01F03D2F81005D8408A
:10A95000C04300F0010070471C1B030000030050BF
:10A960000B2809D00C2809D0182809D019280CBFA9
:10A9700003204FF0FF3070470020704701207047E0
:10A9800002207047014B185C704700BF1C1B03007E
:10A99000C20710B504460CD54FF0A0430322C3F8FC
:10A9A0003427C3F83827C3F83C27C3F84027FFF7FC
:10A9B0008BFFA3070AD54FF0A0430C22C3F82C2726
:10A9C000C3F83027C3F86027C3F8642710BD000020
:10A9D00038B5074C051E04F1080318BF1C46236850
:10A9E0002BB11A6822605B6828469847F7E738BDA4
:10A9F000E42B002020B9054B01225A70FFF7E8BF75
:10AA0000012802D1014A9070F8E77047DC2B002042
:10AA100020B9034B01225A70FFF7DABF704700BF1D
:10AA2000DC2B002038B50E4C2378B3B90D48636099
:10AA3000A3602361E36000F0E7F8054606F052F8F2
:10AA400008B900F0EDF801232370074BD3F8003468
:10AA50000BB10123A370284638BD8525F5E700BF5B
:10AA6000DC2B0020F5A902000000014037B50D4C99
:10AA700000230DF107008DF80730FDF73FFDE36877
:10AA8000013BE360E36833B9074BD3F8005415B9D1
:10AA900000F0D8F8A5709DF80700FDF753FD03B04E
:10AAA00030BD00BFDC2B002000000140012813B5A1
:10AAB0000CD0032820D038B9134B0122C3F88020D2
:10AAC000BFF34F8FBFF36F8F02B010BD0F4C002349
:10AAD0000DF107008DF80730FDF710FD23780BB955
:10AAE000FFF7A0FFE3689DF807000133E36001234F
:10AAF000A370FDF727FDE7E700F092F802B0BDE88C
:10AB00001040FFF7B3BF00BF00E100E0DC2B0020E6
:10AB10001FB503788DF800304368019383688DF882
:10AB20000830C368054A0393054B684653F8213043
:10AB300052F82110984705B05DF804FBF02B002077
:10AB4000F82B00201FB503788DF80030436801937F
:10AB500083688DF80830C368054A0393054B68463F
:10AB600053F8213052F82110984705B05DF804FBE6
:10AB7000F02B0020F82B0020F0B5194B90F800C006
:10AB8000DFF86CE043F82C20164B16460A6943F8B0
:10AB90002C204B7F0EF80C300C4607460FCC89B0AA
:10ABA0006D460FC594E80F0085E80F003B78CDF89F
:10ABB00010C01EF803304BB1002E0B4A694608BF87
:10ABC0003246381D00F0FCFD09B0F0BD002E074AEA
:10ABD000694608BF324607F10C0000F0B5FBF3E709
:10ABE000F82B0020F02B002011AB020045AB020037
:10ABF000002C002000F18040002382B00360036835
:10AC00000193019B02B07047044A137923B90121D3
:10AC1000106091801846704785207047042C0020F2
:10AC2000074B1A68D20704D4C02283F800230122FC
:10AC30001A604FF080430122C3F81825704700BF07
:10AC400000E100E04FF0804208B50223C2F808336B
:10AC50004FF48270FFF7CEFF0123D360D2F818348F
:10AC6000DB03FBD408BD00004FF0804110B5D1F8E4
:10AC7000003163B14FF48070FFF7BCFF0D4B587982
:10AC80000122C1F8082310B95A711B6898474FF088
:10AC90008042D2F8043163B14FF48270FFF7AAFF0B
:10ACA0000223C2F80833034BBDE810401B680120A3
:10ACB000184710BD042C002000F1804000F5C04072
:10ACC000002382B0036003680193019B02B07047C8
:10ACD00003681F2B83BF03F01F03036001484FF07D
:10ACE000A04070470003005007B5019001A8FFF78E
:10ACF000EFFF019B00EB8300D0F8003723F44033D3
:10AD0000C0F80037D0F8003743EA0141C0F8001717
:10AD100003B05DF804FB0000054B4FF0FF3207283D
:10AD200043F8202084BFC01880F85820704700BF27
:10AD30000C2C002038B51D4991F86A30A3BB4FF6A2
:10AD4000FF70FF245A09012A0CBF02464FF0FF3260
:10AD500003F01F05EA40D20748BFCA1803F10103F8
:10AD600048BF82F83040302BECD10024E0B20134EF
:10AD7000FFF7D2FF0C2CF9D10D4B00224A669A80C6
:10AD80000C4BC02083F80603402018604FF4BE70BF
:10AD9000FFF792FF084B4FF00040C3F80403012374
:10ADA00081F86A30104638BD0820FCE70C2C0020E2
:10ADB000702C002000E100E000600040034B93F89D
:10ADC0006A00003818BF0120704700BF0C2C00201B
:10ADD000F7B53D4F3B18044693F93030002B71DA3C
:10ADE0008B78C3F34003002B0BBF082500250C20F4
:10ADF0000820854202D1042003B0F0BD57F8256039
:10AE0000013647D138196EB247F8252080F83060F6
:10AE100013B97B1983F858408B785A071AD4D8078E
:10AE20003AD501A80194FFF753FF019B00EB830083
:10AE3000D0F8003723F00203C0F800372348E208B7
:10AE400004F0070C012303FA0CF310F802C043EAE4
:10AE50000C03835488780B7810F0020028D0AD00E2
:10AE600005F1804505F5C0452402D5F8102522F4EA
:10AE70004F3222F44072C5F810251B04D5F8102576
:10AE800004F47C5403F440331C431443C5F81045C8
:10AE90000020B1E70135ACE701A84A780194FFF73B
:10AEA00017FF019B03F5E073920040F82320C5E7EC
:10AEB000083E47FA86F797F8604044EA831387F81C
:10AEC000603099E7082097E70C2C0020702C0020B8
:10AED00073B5244D2E18044696F93020072A1DDD3F
:10AEE000083A45FA82F595F860309B09032B10D19A
:10AEF000019001A8FFF7ECFE019BD0F81015D94096
:10AF000001F001010231204602B0BDE87040FFF7B8
:10AF1000EBBE012B0CBF02210321F4E7D3B2072BB8
:10AF20001DD8930003F1804303F5C043D3F8100507
:10AF300040F00100C3F8100502F1400040B280006B
:10AF400080B2FFF7B9FE51B196F9303055F8233091
:10AF50002BB1012303FA02F2034BC3F8042302B01E
:10AF600070BD00BF0C2C00200060004007B50190B0
:10AF700001A8FFF7ADFE019BD0F81005D84000F006
:10AF8000010003B05DF804FB2DE9FF470024CDE983
:10AF90000244584D4FF48072012102F1804303F5C1
:10AFA000C04390B21B68012B06D1D5F804330B4285
:10AFB00002D0FFF781FE0C430432B2F5907F4FEAD6
:10AFC0004101EAD14B4BD3F87C31012B11D14FF425
:10AFD000BE70FFF771FE4FF0A04344F00044D3F879
:10AFE00020250292C3F82025D3F820280392C3F825
:10AFF0002028E3B2D3B1404F00250126344210D0BF
:10B00000AB0003F1804303F5C043D3F81005D3F838
:10B01000101557F8253023B1C1F30141C0F30520C5
:10B0200098470135082D4FEA4606E7D1002C59DA3A
:10B03000314D324C324E4FF00008012716F9013BDA
:10B040005A1C3CD0C3F3C201103169445FFA83F942
:10B0500011F8081C03F03F0203F0070307FA03F39B
:10B0600019422CD001A80192FFF732FE019B03F593
:10B07000E07350F82330C3F3014ABAF1020F0CBF5A
:10B08000032102211046FFF72FFE01A80192FFF7CE
:10B090001FFE019B07FA03F3C0F82035AB1893F9A4
:10B0A000303055F8233053B14FEA9911032904D0B9
:10B0B000BAF1020F19D1012901D11046984708F1C0
:10B0C0000108B8F1040FB9D14FF0A043D3F82025FF
:10B0D0000292C3F82025D4F820350393C4F8203514
:10B0E0001343A7D104B0BDE8F087BAF1030FE6D14E
:10B0F0000229E1E7006000400C2C00200003005012
:10B100006C2C0020014B1B68184700BF782C0020D6
:10B110000E4B984237B50C4602D0002003B030BD2C
:10B1200000230DF107008DF80730FDF7E7F9084B14
:10B130001D7915B901221C601A719DF80700FDF7F1
:10B1400001FA002DE9D01120E8E700BF00200040FF
:10B15000782C0020034B984201BF034B00221A6059
:10B160001A71704700200040782C002000234350C3
:10B1700082B043580193019B02B070470A4610B554
:10B180004FF48E71FFF7F2FF136A9168C95C136A7E
:10B1900001331362C0F81C1510BD8B690A4610B547
:10B1A0004FF4847123B9FFF7E1FFD0F8183510BDD3
:10B1B000FFF7DCFF536AD168D0F81805C854536A0A
:10B1C00001335362F3E700001FB501238DF800300F
:10B1D000044BCDE90110D3E900126846904705B051
:10B1E0005DF804FB802C002030B54D4DD5F80433BC
:10B1F0009A0585B051D5D5F82431002B4DD04FF4A8
:10B2000092712846FFF7B2FF4FF40173C5F8083377
:10B21000444B93F829200AB901226A60404902226E
:10B220008DF80020D1F88024C1F8802403929A6917
:10B230000292DA6801920022C3E906226846D3E945
:10B24000001290473648D0F81C315BB1354A51693D
:10B25000136A99424DD992F82830002B49D11146F2
:10B26000FFF78CFF2E48D0F84431002B56D04FF416
:10B27000A271FFF77BFF2B4B93F829200AB1012223
:10B2800002609A69002A49D0586AD96800229A61F6
:10B2900005B0BDE83040FFF797BFD5F804335B0732
:10B2A000D0D5D5F80831002BCCD01E4C1C482146F7
:10B2B000FFF773FF636AA2699A42C3D1E369E16849
:10B2C0004BB1A3612369E3600023606AE3616362B9
:10B2D000FFF77AFFB6E794F829300BB901236B60CA
:10B2E0000F4B4FF40172C3F808230023606AA36177
:10B2F000EEE70B484FF48E71FFF738FF5369002BD0
:10B30000B0D051690291002391688DF8003001910D
:10B3100053616846D2E900139847A3E705B030BDF2
:10B3200000200040802C00201F2886BF00F01F0056
:10B33000044B4FF0A04300F5E070022243F82020B8
:10B34000704700BF000300502DE9F843604D90F8AE
:10B3500004802C2303FB0853064693F82A300C463E
:10B360009146002B40F0AF805A490068FFF7D0FEAD
:10B370000746002840F0A9802268531C10D01F2ADD
:10B3800087BF554902F01F0313464FF0A04101202B
:10B39000984003F5E073C1F80805032041F8230045
:10B3A0006168481C0DD01F298BBF01F01F030B469D
:10B3B00049484FF0A04003F5E0734FF0000C40F80F
:10B3C00023C03068A369C0F8243594F814C0637DA5
:10B3D000BCF1010F4CEA0303C0F86C35C0F814153A
:10B3E000C0F80C252BD1A368591C0DD01F2B8BBF87
:10B3F00003F01F021A4638494FF0A04102F5E072EF
:10B400004FF0000C41F822C0E1684A1C13D01F29FC
:10B4100087BF314A01F01F0C8C464FF0A0424FF01D
:10B42000010E0EFA0CFE0CF5E07CC2F808E54FF0B8
:10B43000030E42F82CE0C0F80815C0F810352C2295
:10B4400002FB08F2AB18C3F804902369AB50B9F1C2
:10B45000000F20D04FF48E71247FFFF787FE4FF44A
:10B46000A2713068FFF782FE32681C4BC2F80433C9
:10B47000130B42F307326101002AC9B21EDB1848E0
:10B48000841884F800130121520903F01F0301FA04
:10B4900003F340F8223033680422C3F800252C233C
:10B4A00003FB08530022C3E9062283F829205A61CE
:10B4B000012283F82A203846BDE8F883094A03F0C0
:10B4C0000F03D154E7E70827F5E71127F3E700BF9B
:10B4D000802C0020E9B1020000030050800002002F
:10B4E00000E100E014ED00E02DE9F041036805798A
:10B4F000284C0022C3F800252C2202FB05420146FD
:10B500005268A2B1244AC3F808231A0B43F3073345
:10B51000002B0CDB02F01F005B090122824020336C
:10B520001E4840F82320BFF34F8FBFF36F8F0B6887
:10B53000D3F80C05D3F81485D3F80865D3F8107543
:10B540004FF0FF329042C3F81425C3F80C25C3F81E
:10B550000825C3F8102501D0FFF7E6FEB8F1FF3F3C
:10B5600002D04046FFF7E0FE7A1C02D03846FFF7D3
:10B57000DBFE731C02D03046FFF7D6FE0868FFF7EB
:10B58000E9FD2C2303FB0544002384F82A30636083
:10B59000BDE8F081802C00208402020000E100E080
:10B5A0000279044B2C2101FB02335869003818BF83
:10B5B00001207047802C00202DE9F84F064690F8B6
:10B5C000048089469246FFF7EBFF044600283CD1F1
:10B5D000204F2C2508FB057B4FF48E71CBF814A06F
:10B5E000CBF80890CBF820008BF828003068FFF7E4
:10B5F000BDFD3068012383605946FFF7BFFDDBF8CE
:10B6000004305D461BBB3068DBF814402B6A9C425B
:10B6100011D83368D3F81C21002AFBD00122DA604C
:10B6200000202C2303FB087700237B61BDE8F88F03
:10B6300095F828303BB9D0F81C31002BF8D059468A
:10B64000FFF79CFDE2E70F20EBE71120EEE7204635
:10B65000ECE700BF802C00200023435082B0435809
:10B660000193019B02B070471FB501238DF8003094
:10B67000044BCDE90110D3E900126846904705B0AC
:10B680005DF804FBAC2C00207FB5434AD2F824615E
:10B69000002E60D010464FF49271FFF7DDFF0223B9
:10B6A0008DF80030D2F88034C2F880340393D2F899
:10B6B0003C350293394BDA6801920022C3E9062235
:10B6C0006846D3E9001290473348D0F8443173B14B
:10B6D0004FF4A271FFF7C0FF304B9A693AB10022D4
:10B6E000C3E90622D968D0F83C05FFF7BDFF2A4818
:10B6F000D0F82031ABB14FF49071FFF7ADFF0123CB
:10B70000C360264B5A6962B1D0F84C1502910022F1
:10B7100099688DF8002001915A616846D3E90012BA
:10B7200090471D48D0F858319BB14FF4AC71FFF7EA
:10B7300093FF1A4B5A6962B1D0F84C15029100225E
:10B7400099688DF8002001915A616846D3E900128A
:10B75000904704B070BDD2F81031002BB4D04FF434
:10B7600088711046FFF778FF0C4BD2F83C059969B9
:10B770008842A9D1DC69D96864B1D2F8005225F0B9
:10B780002005C2F800521A699C61DA60DE61FFF799
:10B790006BFF99E79C61FAE700200040AC2C002089
:10B7A0001F2886BF00F01F00044B4FF0A04300F598
:10B7B000E070022243F82020704700BF00030050D1
:10B7C0002DE9F843664E90F80480242303FB0863B8
:10B7D000044693F820300D469146002B40F0BC8083
:10B7E00060490068FFF794FC0746002840F0B680E7
:10B7F00029684B1C10D01F2987BF5B4A01F01F032B
:10B800000B464FF0A0420120984003F5E073C2F8C8
:10B810000805032042F823006A68501C0DD01F2A37
:10B820008BBF02F01F0313464F484FF0A04003F5B3
:10B83000E0734FF0000C40F823C02068AB69C0F8FB
:10B84000243595F814C06B7DBCF1010F4CEA03035D
:10B85000C0F86C35C0F80C15C0F814252BD1AB68B6
:10B86000591C0DD01F2B8BBF03F01F021A463E49F7
:10B870004FF0A04102F5E0724FF0000C41F822C0F9
:10B88000E9684A1C13D01F2987BF374A01F01F0CF3
:10B890008C464FF0A0424FF0010E0EFA0CFE0CF554
:10B8A000E07CC2F808E54FF0030E42F82CE0C0F847
:10B8B0000815C0F81035242202FB08F2B318C3F8AB
:10B8C00004902B69B350B9F1000F2FD04FF4887159
:10B8D0002A7FFFF7C1FE20684FF49071FFF7BCFE8E
:10B8E00020684FF49271FFF7B7FE20684FF4A27101
:10B8F000FFF7B2FE4FF4AC712068FFF7ADFE23688E
:10B900001A49C3F80413190B43F307335201002BF0
:10B91000D2B21CDB1648C51885F8002301225B094A
:10B9200001F01F0102FA01F140F8231023680822F8
:10B93000C3F80025242303FB08660023C6E9063369
:10B940007361012386F820303846BDE8F883094B3F
:10B9500001F00F015A54E9E70827F5E71127F3E74B
:10B96000AC2C002089B602000003005010034200F6
:10B9700000E100E014ED00E02DE9F0413D4D0679D5
:10B980000468242303FB065302465B68ABB13A4BC1
:10B99000C4F8083344F30733002B4FEA14310CDBAF
:10B9A00001F01F005B09012181402033334840F83A
:10B9B0002310BFF34F8FBFF36F8FD4F8003223F003
:10B9C0002003C4F80032242303FB06539B6933B1E0
:10B9D0004FF4A2712046FFF73FFE012363604FF44E
:10B9E000AC712046FFF738FE0123E360242303FBFC
:10B9F0000653D4F858110029FBD0996919B1D4F82D
:10BA000044110029F5D00023C4F800351368D3F899
:10BA10000C05D3F81485D3F80815D3F810754FF03A
:10BA2000FF329042C3F80C25C3F81425C3F808254B
:10BA3000C3F8102501D0FFF7B3FEB8F1FF3F02D0E5
:10BA40004046FFF7ADFE7A1C02D03846FFF7A8FE4D
:10BA50004B1C02D00846FFF7A3FE2046FFF77AFBF7
:10BA6000242303FB0655002385F820306B60BDE8D6
:10BA7000F08100BFAC2C00201003420000E100E088
:10BA80000279044B242101FB02335869003818BFA6
:10BA900001207047AC2C002001F06043B3F1005F3F
:10BAA0002DE9F0470646884692463BD190F804902F
:10BAB000FFF7E6FF0446002836D11D4F30682425E5
:10BAC00005FB09754FF49071C5F814A0C5F80880FE
:10BAD000FFF7C2FD4FF4AC713068FFF7BDFD33686E
:10BAE0006A69A968C3F84415C3F8482501229A6019
:10BAF0006A68DAB9D3F82021D3F858011AB90028B6
:10BB0000F8D00F2007E00028FBD10122DA60D3F83B
:10BB10005821002AFBD0242303FB097700237B61F3
:10BB2000BDE8F0871020FBE71120F9E72046F7E792
:10BB3000AC2C00201F288ABF094B4FF0A04300F017
:10BB40001F0003EB8000D0F8003723F44033C0F827
:10BB50000037D0F8003743EA0141C0F800177047BA
:10BB6000000300500220FEF7CDBE00002DE9F04793
:10BB700080460D46FEF7F4FE0328044610D8012D3A
:10BB800010D0022D30D05DB91A48FCF7ADFB1A4B2E
:10BB900004EB440213449D78184B1B5DAB4219D053
:10BBA000BDE8F087144E00EB4003F218F55C5378C3
:10BBB000470053B1DFF84C900E484A464FF480419D
:10BBC000FCF764FB08B989F8008027443E440B4B1E
:10BBD000B2781A55002DE3D0094B1B68002BDFD03B
:10BBE0002846BDE8F047184700EB400402480444EB
:10BBF0006578EFE7E0220020D22C0020ED2C002019
:10BC0000E82C0020D02C002000780221FFF7AEBFE6
:10BC100008B5094B1B7853B10020FEF741FE012007
:10BC2000FEF73EFEBDE808400320FEF739BEBDE842
:10BC30000840FEF749BE00BFD12C0020F8B57A4C71
:10BC4000237805461BB100232370FFF7E1FF172D72
:10BC500000F28780DFE805F00C1717425364757F08
:10BC6000878C878C949999999999C3C8D0D8E3E324
:10BC7000FFF7CEFF6D48FCF737FB6D4B0022044603
:10BC80001A702046F8BD0020FEF7E2FDF0B100205A
:10BC9000FEF706FE022D0CBF4FF4E1644FF47A6408
:10BCA000634B1D7000254FF400464FF47A7029460F
:10BCB0004FF4FA620023E4FB060105F071F82A460E
:10BCC0000146BDE8F8405948FCF7E0BAFEF7D4FD5C
:10BCD000022D0CBFC8244FF4C874E1E70020FEF722
:10BCE000B7FD40B10020FEF7DBFD4FF44874504B28
:10BCF00003221A70D6E7FEF7BFFDC824F7E700203D
:10BD0000FEF7A6FD38B10020FEF7CAFD4FF47A64B5
:10BD1000474B0422EDE7FEF7AFFD4FF4C874F7E799
:10BD20000020FEF795FD48B10020FEF7B9FD404B1D
:10BD300005221A7040F6CD410022C2E7FEF79CFDB5
:10BD4000F5E70020FEF7DEFD394B06221A700022CF
:10BD500040F26661B5E70020FEF78EFD344B072206
:10BD60001A7000248DE701202070FEF7CBFDEEE76E
:10BD700001202070FEF7C6FD00224FF40051A0E71D
:10BD8000FEF7B1FD2A4B0C22EAE72A482A4EFCF7BF
:10BD9000ABFAD5F1110504461CD0D8B9012D13D04A
:10BDA000C820454321464FF400474FF47A704FF4C2
:10BDB000FA620023C5FB070104F0F2FF22460146A8
:10BDC0001C48FCF763FA04460220FEF755FD0123E8
:10BDD000337056E70220FEF763FD0023F8E7FFF714
:10BDE00017FF134B1222BBE7FFF712FF0020FEF7ED
:10BDF00043FD0F4B1322B3E7FFF70AFF0120FEF7C5
:10BE00003BFD0B4B1422ABE7FFF702FF0020FEF7D0
:10BE100033FD0120FEF730FD054B1522A0E7FEF7AC
:10BE200062FD034B1D709CE7E42C002000230020E2
:10BE3000EC2C0020C0220020D12C0020044B1B68D9
:10BE4000DB0703D5034B1878FFF7F8BE704700BF38
:10BE5000E02C0020EC2C0020032801D8FEF76CBD5C
:10BE600000207047044B1B6813F0010301D0FFF75B
:10BE7000E5BE1846704700BFE02C002038B51C4BCB
:10BE800018601C4B10F00204054619601AD01A4BBA
:10BE90001A480E221A700F22DA7010229A7111229B
:10BEA0005A72042140F23332FCF75EF8044648B976
:10BEB000FCF7B2F8044628B90146114A1148FCF7CC
:10BEC000D3F90446EB0711D50120FEF761FD6CB9EB
:10BED00021460D4A0D48FCF7C7F9044630B9BDE8C4
:10BEE00038400B4A0B480121FCF7BEB9204638BD4B
:10BEF000E02C0020E82C0020D22C0020481B03005E
:10BF000009BC02006C1B03003DBE0200701B030055
:10BF100065BB0200681B0300032811D8012A0AD15F
:10BF200001290FD100F10E02D2B20D4B00EB4000FF
:10BF30001A54002070470129F7D0022904D049B1D2
:10BF4000072070470022F8E7054B00EB400018443B
:10BF50004270EEE7024B00EB400018448270E8E7C5
:10BF6000D22C0020032808B506D8FEF70BFD0321CC
:10BF7000FFF7E0FD002008BD0620FCE708B5012220
:10BF800002210020FFF7C8FF08B1072810D10722BF
:10BF900002210120FFF7C0FF08B1072808D10021C6
:10BFA0000A220846FFF7B8FF10B1072808BF002093
:10BFB00008BD00000388102B10B502D0112B1ED035
:10BFC00010BD1A4C2168B1B901220846FFF7A4FF41
:10BFD00008B1072824D1072202210120FFF79CFF86
:10BFE00008B107281CD1042202210020FFF794FF8A
:10BFF00008B1072814D1236801332360E0E70B4A16
:10C000001368013B1360002BDAD1FFF7B7FF00285C
:10C01000D6D0074B1B68002BD2D0BDE81040184784
:10C02000034B1B68002BE6D09847E4E7F82C002070
:10C03000F42C002008B50020FFF794FF08B1062873
:10C0400006D10120FFF78EFF10B1062808BF00209F
:10C0500008BD00000D4B10B518600C4629B1012039
:10C06000FFF7FAFE40B102232370094B1B6853B956
:10C07000BDE81040FFF782BFFFF7EEFE08B10B23CB
:10C08000F2E72070F1E7002010BD00BFF42C002083
:10C09000F82C002076DF70477ADF70477CDF70472E
:10C0A0008FDF704733DF7047FBF7CCBF08B5002048
:10C0B000FFF7D8FE08B1FBF7C5FFFFF7BBFF08B1DC
:10C0C000FBF7C0FFFFF7EEFF18B1BDE80840FBF734
:10C0D000B9BF08BD0388212B13B5044639D005D854
:10C0E000102B19D0112B0AD002B010BD3B2B01D060
:10C0F000562BF9D1A0881321FFF7CCFF22E01C4B6F
:10C100001C481D49C01AC008000440F0030002B0DA
:10C11000BDE81040FBF798BC154B16481749C01AEC
:10C12000C008000440F00300FBF78EFC0720FFF777
:10C1300099FE08B1FBF786FF114BA18811481980C1
:10C1400002F04EF90028CFD002B0BDE81040FBF756
:10C1500079BF002380888DF8043001A98DF805305F
:10C16000FFF79EFF0028BFD0FBF76CFFBCE700BFC6
:10C170003C11030064110300741B0300821B0300C5
:10C18000242300204431002008B503784BB9054B27
:10C190003B211888FFF77EFF18B1BDE80840FBF788
:10C1A00051BF08BD24230020072808B513D00A2852
:10C1B0000DD0042819D10D4B13211888FFF76AFF01
:10C1C00030F0080311D0BDE80840FBF73BBFBDE8E5
:10C1D0000840FFF76BBF054B1A884FF6FF739A4272
:10C1E00003D1034800F09EFDEAE708BD24230020A8
:10C1F000FC2C002008B598B1032815D10B4B0C4836
:10C200000C49C01AC008000440F00300FBF71CFCF6
:10C210000220FFF727FE38B1BDE80840FBF712BF48
:10C22000BDE80840FFF742BF08BD00BF3C11030056
:10C23000641103008D1B030008B50548032100F0BD
:10C240002DFC18B1BDE80840FBF7FCBE08BD00BFDF
:10C25000FC2C002010B5044603F044FC204603F0FB
:10C2600065FC204603F0FAF923780D2B03D1BDE8D5
:10C270001040FFF7E1BF10BDFBF7E4BE00B54FF47F
:10C280008041AFB00020FBF741FA08B1FBF7DAFEBE
:10C29000FBF77AF9FBF7B6FF08B1FBF7D3FE6A4963
:10C2A0000320FFF7EBFD08B1FBF7CCFE03A900204C
:10C2B000FFF7D0FE08B1FBF7C5FE9DF80C40FEF776
:10C2C00003F908B1FBF7BEFE04F08EFB08B1FBF7E3
:10C2D000B9FE002303A90120039304F051FC08B127
:10C2E000FBF7B0FE03A804F0EDFC08B1FBF7AAFED3
:10C2F000112356498DF808300F2202A8FFF7CEFE11
:10C3000008B1FBF79FFE0023ADF810305023ADF8C5
:10C310000C30A023ADF80E3003A84FF4C873ADF86D
:10C320001230FFF7B9FE08B1FBF78CFE4848002138
:10C3300001F044FF08B1FBF785FEAC22002103A801
:10C3400004F053FE02238DF80C3040F20163ADF887
:10C350000E3001234FF49671ADF81C308DF8883003
:10C3600044F25063CDE925133A4A3B4B3B480892CF
:10C3700003A92C9300F01DFB08B1FBF763FE3748BF
:10C38000012100F013FB364B3648039303A902F05A
:10C3900015F808B1FBF756FE1422002103A804F09B
:10C3A00024FE4FF4F0234FF4A032CDE904230323FD
:10C3B0008DF818302C4B089303A82C4B099300F0F0
:10C3C000CFFD08B1FBF73EFE02F008FE08B1FBF717
:10C3D00039FE31238DF80C3007238DF80D301023F2
:10C3E0008DF80E3003A803238DF80F308DF8103030
:10C3F00002F094FE08B1FBF725FE1D4802F076FE20
:10C4000008B1FBF71FFE1B4B1B481C49C01AC00894
:10C41000000440F003000190FBF716FB022C0FD143
:10C4200017490198FBF710FB02F0A4FE08B1FBF7D7
:10C4300009FEFBF7BDF90028FBD1FEF75BF8F8E732
:10C44000FFF7FAFEF5E700BFA9C102009F1B03003A
:10C450003031002020230020F5C10200FC2C0020F8
:10C46000A9C002004431002089C1020079C2020043
:10C4700055C202003C11030064110300AF1B03000E
:10C48000C91B03006DDF704779DF70477DDF7047A0
:10C4900064DF70472DE9F04F85B000250E9CBDF894
:10C4A0003CB0B4F800A00191074690461E46A9464C
:10C4B0003A884A450DDC45B12388013BA3EB0A03CA
:10C4C0009BB2FF2B3AD806F80A30002005B0BDE831
:10C4D000F08F7A6852F82900039000220DF10B01C9
:10C4E00003A8FFF7D5FF0028F0D19DF80B204245A7
:10C4F00021D12288002D14BF0020022002EB080168
:10C50000014459451ADC3DB9013292B2019B2280A7
:10C51000B35422880132228022880DF10B0132446B
:10C5200003A8FFF7B5FF0028D0D121889DF80B2084
:10C530000A442280012509F10109B9E70C20C5E769
:10C540002DE9F341089FBDF824801546CDE9007818
:10C55000022204461E46FFF79DFF50B933461022C3
:10C5600029462046CDE9087802B0BDE8F041FFF742
:10C5700091BF02B0BDE8F0812DE9F04F002317888C
:10C58000138090F82D3085B006460D4614465BB3F7
:10C59000082F01D80C2028E102A8FFF773FF00281C
:10C5A00040F023812388DDF809100822EA5423880B
:10C5B00001339BB21B222380EA54238801339BB2B0
:10C5C000EA182380E950BDF80D30938023889DF848
:10C5D000082006339BB212F0FE0218BF012223800E
:10C5E000EA54238801332380B378FBB123880433D2
:10C5F000BB42CFD802A8FFF747FF002840F0F580E4
:10C6000023880322EA54238801339BB21922238012
:10C61000EA542388BDF8082001339BB2E91823802F
:10C62000EA54120A4A70238802332380F2789AB1BE
:10C630002388D91CB942ADD80221E954238801339B
:10C640009BB201212380E95423880B449BB22380B1
:10C65000EA5423880B4423807268AAB12388D91C2A
:10C66000B94297D8022192F90020E9542388013376
:10C670009BB20A212380E954238801339BB2238093
:10C68000EA542388013323803389002B40F0A180B2
:10C69000338A5BB1CDE900472B460722032106F11F
:10C6A0001000FFF74DFF002840F09F80338B5BB1F7
:10C6B000CDE900472B461522142106F11800FFF79B
:10C6C0003FFF002840F09180326A002A40F09080BD
:10C6D000D6F82480B8F1000F30D0B8F804302188A3
:10C6E000981C8A1C0244BA423FF654AFFE283FF61B
:10C6F00051AF03336B54238801339BB2FF22238055
:10C70000EA54238801339BB22380B8F80020EA540E
:10C71000E918120A4A702088023080B22080B8F8E6
:10C7200004205AB1D8F8081000296BD0284404F02E
:10C7300033FC2388B8F804201344238096F82C3067
:10C74000002B40F09880307800284ED03388012BA1
:10C7500058D0228802F1020CBC453FF61BAF0128DD
:10C7600005D17378023313449F42FFF413AF023FA5
:10C77000BF1ABFB202A905EB0C00ADF80870FFF7B5
:10C7800085FE90BB3178BDF80830022900F0B980F1
:10C7900072789A4202D39F4280F0B180012940F022
:10C7A000B280974293B2C0F0AE80ADF80830082155
:10C7B000BDF80830FE2B3FF6EDAE22880133AB54B6
:10C7C0002288013292B22280A95422881344238005
:10C7D0000BE0CDE900472B460622022106F10800B6
:10C7E000FFF7AEFE00283FF453AF05B0BDE8F08F71
:10C7F000B4F800C00CF10603BB423FF6CBAE118883
:10C80000052901D80720F0E76FF4486E01EB0E030D
:10C810009BB24FF27D3E7345F4D95388052BF1D975
:10C820006FF44860181880B27045EBD94FF6FF706E
:10C83000814201D09942E5D8052305F80C302388C0
:10C8400001339BB212212380E954238801339BB228
:10C8500023801188E954E818090A417023880233BB
:10C860009BB223805288EA54E918120A4A7023883E
:10C87000023323802CE7B36A002BC3D04FF00008AB
:10C880004FF00C0A4FF0160BB16A5FFA88F20AFB00
:10C8900002F201EB0209B9F80430981CFE283FF6B9
:10C8A00079AE208803332B54238801339BB2238035
:10C8B00005F803B0238801339BB223808A5AEA54D7
:10C8C000E918120A4A702088023080B22080B9F834
:10C8D00004205AB1D9F80810002993D0284404F054
:10C8E0005BFB2388B9F804201344238096F82C209E
:10C8F00008F101085FFA88F39A42C5D823E70921B5
:10C9000056E79F42FBD2ADF8087050E730B5C8B18A
:10C91000F2B10024651C8D4206DA1588A54212D8B2
:10C9200005196D789D420ED1A14211D9005D48B123
:10C93000013880B230B10234A3B210FA84F4A142BB
:10C9400006DB138030BD055D01352C44A4B2E1E760
:10C950000020F7E713B513460022ADF806200DF1CD
:10C9600006020446FFF7D2FF10B1BDF80630E0180A
:10C9700002B010BD72DF704773DF704774DF70471D
:10C9800038B5012204460D46B0F81414D0F810044E
:10C99000FFF7E0FF00B1057004F13C0204F582618D
:10C9A00004F15400BDE83840FFF7E4BF80F83010D0
:10C9B0007047F8B504460F4600296BD0002869D0AF
:10C9C00091F87A301BB191F89830002B64D14FF078
:10C9D000000C84F802C007F178060FCE251D0FC5A4
:10C9E0000FCE0FC596E8070085E8070084F830C031
:10C9F000D7F8A4306363D7F8A830A36304F5826244
:10CA00004FF6FF73C4F826C4A4F82434C4F82024D5
:10CA1000C4F829C422780AB984F8543094F8243030
:10CA2000002B14BFEE231F2304F15501C4F810148A
:10CA3000A4F8143404F214423846FFF79DFD40BBBD
:10CA400094F82430002B14BFEE231F2304F231216D
:10CA5000C4F81814A4F81C3404F21C4207F13C007A
:10CA6000FFF78AFDA8B9A369A4F848304FF4807392
:10CA70000125A4F8503063692064014684F83C50D5
:10CA8000636404F13C0204F15400FFF773FF00B942
:10CA90002570F8BD0E20FCE70720FAE7F8B5067808
:10CAA00004460D46002E00F006810023C0F826340F
:10CAB000C0F82934C388817000F226470BB10129E0
:10CAC00003D0E37943B1022D06D1636BABB10122F0
:10CAD00084F82D240820984704F2274304F22D41BE
:10CAE00013F8012B12B99942FAD116466B1E032B8B
:10CAF00053D8DFE803F0050B0F1284F82D34EBE771
:10CB0000A3791BB194F8243003B95EB9E3790BB172
:10CB1000002E44D1237A002B43D1637A002B0CBF23
:10CB200000250425636BA570002B3CD0033D012D2F
:10CB300039D86279002A36D094F82E249ABB84F82A
:10CB40003024012284F82F240720984704F13C0563
:10CB500018220021284604F048FAE26A0123511EF7
:10CB6000994284F83C3001D9042A00D1D3B284F828
:10CB7000513094F8243043B1A26A511E012902D9E0
:10CB8000042A18BF012284F85220A278042A1CD853
:10CB9000DFE802F0780D23365A000025C2E70225AF
:10CBA000C0E70325BEE7002384F82F34CEE7012336
:10CBB00084F831300023C4E91073C4F82034022310
:10CBC00084F83C308023A4F84830A378002B5DD152
:10CBD000636B002B6BD1002068E0002B14BF072390
:10CBE000032384F83C302369A4F848300023022250
:10CBF000C4F82034E36884F8312027646364E4E7F0
:10CC000062696264A269A4F8482013B1062384F81B
:10CC10003C306379B3B194F82E349BB994F8303436
:10CC200083B1022384F8503004212046FFF7A8FE88
:10CC30000028CAD1052384F8313004F58263C4F892
:10CC40002034C2E70323F6E7E2696264226AA4F8AB
:10CC5000482013B1062384F83C30637983B194F8FB
:10CC60002E346BB994F8303453B1022384F8503029
:10CC700004212046FFF784FE0028A6D10623DAE728
:10CC80000423D8E7002384F831309EE7D4F8201439
:10CC90002A4604F15400FFF76DFE38B994F83010BD
:10CCA00094F85400FFF768FE002891D0F8BD94F87E
:10CCB000310098478FE70820F8E70388112B10B55B
:10CCC0000C460AD0262B1FD0102B05D1C37B012B7D
:10CCD00002D18388A1F8243410BD0022838881F812
:10CCE0002E24B1F824249A42F6D10B79002BF3D1EB
:10CCF00001212046FFF7D2FE0028EDD0A36B002BC8
:10CD0000EAD0BDE810401847037A013B012BE3D875
:10CD1000897805230131B1FBF3F303EB8303C91ACF
:10CD2000C9B2E6E738B5044690F85400FFF726FE8E
:10CD3000012384F82E34002384F8303484F85030F2
:10CD400006212046FFF71CFE054638B9A17820468B
:10CD5000FFF7A4FE10B1A36B03B19847284638BD76
:10CD600075DF704776DF70477ADF70477BDF70478B
:10CD7000034B1A8882420CBF18460020704700BF40
:10CD80006C310020024B9B6903B11847704700BF0C
:10CD90005031002073B585B22846FFF7E9FF0446FD
:10CDA00038B3174E027A337B9A420CD200F10A0153
:10CDB0002846FFF7D5FFF0B111281AD002B0BDE820
:10CDC0007040FFF7DFBF00230372337C43B13B2188
:10CDD0002846FFF7C7FF30F0080301D0FFF7D2FF66
:10CDE000736933B100228DF80420ADF8065001A814
:10CDF000984702B070BD237A01332372F9E700BF70
:10CE00005031002037B50B46497A0F4A79B9D2E93B
:10CE100001141D7A0246002D18BF21465868FBF701
:10CE200035FA78B103B0BDE83040FFF7ABBF002161
:10CE30001972536933B10122ADF806008DF8042050
:10CE400001A8984703B030BD503100204B880288BC
:10CE50009A4212D842889A420FD380888B8840F237
:10CE6000F311884294BF021A421A9A4205D8084424
:10CE7000984234BF00200120704700207047000016
:10CE80000388122B70B5014659D004D8102B1ED040
:10CE9000112B44D070BD502BFCD12F4BC288DB89A5
:10CEA0009A42F7D1038A022BF4D186883046FFF7E5
:10CEB0005FFF05460028EDD001F1120000F002FAF4
:10CEC00038BB6868FBF710FA0028E3D009E0C37BA1
:10CED000012BDFD14FF6FF70FFF74AFF054620B95F
:10CEE0000420BDE87040FFF74DBF1C4A8E880680C5
:10CEF000002303721368C0F80A305368C0F80E307C
:10CF000010310A30FFF7A2FF134B6872DB89002B48
:10CF1000C0D129463046BDE87040FFF773BF808816
:10CF2000FFF726FF04460028B4D04068FBF7DCF981
:10CF300008B1FFF727FF4FF6FF732380AAE7868823
:10CF40003046FFF715FF05460028A3D008310A3008
:10CF5000FFF77CFF6872DCE7503100208031002051
:10CF6000F8B5064648B305460FCD154F3C460FC4ED
:10CF700095E8070084E807003068124C3C60B0B1C7
:10CF8000FFF7F2FEC0B9326813682360536863602C
:10CF90000D480E4A4FF6FF7303800D4B40F8043FD7
:10CFA0000021FBF761F9002818BF032004E02046A8
:10CFB000FFF7DCFE0028EBD0F8BD0E20FCE700BF39
:10CFC00050310020803100206C31002095CD0200CE
:10CFD00088310020F7B5174601900E4691B1019CAB
:10CFE0006CB100252C46294601A8FCF734FC18B189
:10CFF0003946A8B2B04701340135142DF3D120468B
:10D0000003B0F0BD0C46FAE70AB1FCF703BCFCF72D
:10D0100018BC73B50191019C06466CB100252C46E5
:10D02000294601A8FCF717FC18B106EB44030134AC
:10D030009D800135142DF3D13046346002B070BDAF
:10D040002DE9F04703888488103B8CB005460A2BF5
:10D0500021D8DFE803F00640202020202020206592
:10D060004700DFF8E880D8F80830DB430093D8F8B1
:10D0700004106846FCF754FC009901A8FFF7C9FFAB
:10D080000DF108090027019B9F4207D3132C12D9E9
:10D090000420FAF7D7FF0CB0BDE8F08739F802ABEF
:10D0A00000260136514608EB8600FCF7CAFB1E2E0F
:10D0B000F7D10137E7E71F482146FCF7ABFB1E48D5
:10D0C0002146FCF7A7FBEB7B022BE4D11B48214652
:10D0D000FCF7A0FBDFE7174821460CB0BDE8F0479E
:10D0E000FCF7AFBB027A16483F2A4FEA12152146D9
:10D0F00094BF00220122FFF787FF022D94BF002278
:10D10000012210482146FFF77FFF012D0E4894BFF2
:10D110000022012221460CB0BDE8F047FFF774BFA2
:10D12000037A002BB7D1427A0548C2F3C0022146E8
:10D13000F1E700BFB0310020AC310020B431002055
:10D14000C0310020BC310020B8310020A8310020BF
:10D150001328014602D80248FCF77DBB0020704727
:10D16000AC31002007B50190FFF7F2FF019930B113
:10D170000448FCF770FB002814BF0220012003B014
:10D180005DF804FBB431002007B50190FFF7E0FF24
:10D19000019930B10448FCF75EFB002814BF02205F
:10D1A000012003B05DF804FBB031002007B5019009
:10D1B000FFF7CEFF019928B1044803B05DF804EBF6
:10D1C000FCF749BB03B05DF804FB00BFB831002099
:10D1D00007B50190FFF7BCFF019928B1044803B0DF
:10D1E0005DF804EBFCF737BB03B05DF804FB00BF50
:10D1F000BC31002007B50190FFF7AAFF019928B1C3
:10D20000044803B05DF804EBFCF725BB03B05DF800
:10D2100004FB00BFC031002008B518210248FCF70C
:10D2200023FBC0B208BD00BFA831002070B50A4E74
:10D23000054630460C46FCF70EFB58B12846FFF772
:10D2400087FF38B10734294606EB8400BDE87040FB
:10D25000FCF701BB002070BDA8310020F8B50B4FD2
:10D26000054638460C461646FCF7F5FA60B12846E6
:10D27000FFF76EFF40B107343246294607EB8400C2
:10D28000BDE8F840FFF7C0BEF8BD00BFA8310020E0
:10D2900073B50B4D019204460E4601462846FCF735
:10D2A000DAFA50B1063405EB8404019A606831461D
:10D2B00002B0BDE87040FFF78DBE02B070BD00BF88
:10D2C000A8310020008800F001007047A0DF7047FF
:10D2D000A1DF7047ADDF7047B3DF7047B4DF704741
:10D2E00010B50446408800F0B9FDA0802046BDE896
:10D2F000104001F06DBE30B587B005460C461422D3
:10D30000002101A803F071FE082301A88DF8043064
:10D31000ADF806500394FFF7E3FF07B030BD0000FF
:10D3200070B586B005461422002101A803F05DFE09
:10D330004FF6FF739D42ADF806503FD0284600F0EF
:10D340007FFC1128044633D016D8D8B10B2820D042
:10D350002046FDF75BF91A4E1A4902461A48361A5A
:10D36000F608360446F001002B46FAF77AFB214610
:10D370002846FFF7C0FF03E043F202039842E7D1DB
:10D38000002216E00F238DF8043001A8FFF7A8FF54
:10D39000F6E710238DF8043009480B4B0B49C01AEF
:10D3A000C00800042A4640F00200FAF751FBECE7FF
:10D3B0000122074B28461978FFF750FF06B070BDD1
:10D3C000B4110300561C03003C110300D61B0300DC
:10D3D0002B320020FFF7A4BF024B0349187800222C
:10D3E000FFF756BF2D320020EDD302002DE9F047A4
:10D3F000DFF8348188B098F800100446FFF716FF74
:10D400000646002840F08480204600F07DFC082875
:10D41000054632D016D808B306285BD02846FDF75B
:10D42000F5F83D4F3D4902463D483F1AFF083F048D
:10D4300047F001002346FAF714FB29462046FFF780
:10D440005AFF09E043F20203984205D043F2014338
:10D45000984259D01128E1D1012546E031461422E5
:10D4600003A803F0C2FD112303A88DF80C30ADF81A
:10D470000E400126FFF734FFEEE70DF10600FFF73F
:10D480002BFF354601274FF0020A0DF10809BDF8C0
:10D490000630BB421ED9002249463846CDE903A9D1
:10D4A000FFF71CFFB0B9BDF808303DB942F60525BD
:10D4B0005B1B5D425D410137BFB2E8E742F60212F5
:10D4C0009342F8D101AB03AA394620460493FFF7F3
:10D4D00001FF30B1204600F0C1FC00F041FC002506
:10D4E00003E0BDF80430002BF4D00E4B2A46197827
:10D4F0002046FFF7B3FE98F800103246204608B0E9
:10D50000BDE8F047FFF7AABE2046FFF709FFA3E7F3
:10D5100008B0BDE8F08700BFB4110300A71C0300EA
:10D520003C1103002D3200202E32002013B504469A
:10D5300000F094FC00236A46092101F0E3F8052875
:10D5400005D1044B012219782046FFF787FE02B06F
:10D5500010BD00BF2932002008B5084B08491878D3
:10D560000022FFF795FE024630B9064B06491878AF
:10D57000BDE80840FFF78CBE08BD00BF2C3200207C
:10D58000C9D50200293200208DD5020037B542F6F8
:10D59000A623ADF800300A4B044618680190012517
:10D5A00001AA69462046ADF80250FFF78FFE28B960
:10D5B000044B2A4619782046FFF750FE03B030BDD1
:10D5C000E41E03002832002070B5012186B0064613
:10D5D0002B48FCF776F90446BFF35F8F00284AD149
:10D5E000304600F0A1FA1128054639D018D8002895
:10D5F00043D00B2832D02846FDF708F8214C2249A9
:10D6000002462248241AE408240444F00100334668
:10D61000FAF727FA29463046FFF76DFE00241DE091
:10D62000862803D043F202039842E3E714222146FE
:10D6300001A803F0DAFC07238DF804301148134BDE
:10D640001349ADF80660C01AC008000440F002009B
:10D650003246FAF7FDF901A8FFF742FE224600E044
:10D6600001220C4B30461978FFF7F8FD1CB9BFF3C7
:10D670005F8F034B1C6006B070BD01240246F0E7CB
:10D6800024320020B41103001C1D03003C110300D0
:10D69000E71C03002C32002038B503780446A3B9F8
:10D6A0004088FFF73DFE6588284600F01BFB28B147
:10D6B000064B012219782846FFF7D0FD6088FFF756
:10D6C00035FFBDE83840FFF747BF38BD2D32002099
:10D6D00037B50378092B044630D1427A72BB057AFC
:10D6E000072D1BD0082D2ED0012D27D180886A460A
:10D6F000294601F08DFA08BB019B1B78F3B1A08885
:10D7000000F0DAFB4FF6FF73984217D0124B2A460F
:10D710001978FFF7A3FDFFF75FFE0FE0808800F0A8
:10D72000CBFB4FF6FF739842044607D00B4B012208
:10D730001978FFF793FD2046FFF7F8FE03B0BDE828
:10D740003040FFF709BF064B19680129F6D1BFF336
:10D750005F8F1A60F2E700BF2D3200202C320020CC
:10D76000243200202DE9F843FFF756FDDFF8B09092
:10D77000DFF8B08089F80000FFF74EFD88F8000060
:10D78000FFF74AFD1D4F1E4E3870FFF745FD307004
:10D79000FFF742FD1B4D1C4C2870FFF73DFD20702C
:10D7A000FFF73AFD194B187099F80030182B11D07B
:10D7B00098F80030182B0DD03B78182B0AD033780E
:10D7C000182B07D02B78182B04D02378182B01D0D6
:10D7D00018280CD10E4B0F480F49C01AC00800047E
:10D7E00040F00100FAF730F90320BDE8F8830B4B55
:10D7F00000201860BFF35F8FF7E700BF2D320020D5
:10D800002E32002029320020283200202A32002027
:10D810003C110300B4110300591D03002432002001
:10D820002C3200202B32002037B5134B0022CDE9DB
:10D830000032124B0D4619780446FFF70FFD1049D0
:10D84000104B2046002D08BF0B46019300F006FB4D
:10D850000022694600F0C2FF60B1FCF7D7FE0A4B18
:10D860000A4902460A481B1ADB081B0443F002005F
:10D87000FAF7EEF803B030BD0100090029320020AC
:10D88000E81E0300EC1E0300B4110300C81D0300D2
:10D890003C11030070B503888488502B86B0054680
:10D8A00039D00FD8352B49D0362B00F08D80584B0E
:10D8B000584918780022FFF7EBFC06B0BDE870402D
:10D8C000FFF78ABD522B22D0542BF0D11422002115
:10D8D00001A803F08AFB122320468DF80430ADF82E
:10D8E000064000F0BBFAADF8080000F039FA4A4BE8
:10D8F000204619780022FFF7B1FC484B20461978E2
:10D900000022FFF7ABFC01A8FFF7EAFCCFE72046B7
:10D91000FFF706FDCBE7037B012BC8D1827A012AF2
:10D92000C5D1018942F602139942C0D13C4B204631
:10D930001978FFF793FCFFF70FFEB8E7394E204642
:10D940003178FFF773FC0028B1D0002231782046EF
:10D95000FFF784FCEA88B2F5857F0AD072B13248BD
:10D96000324BC01AC0080004314940F00200FAF7F7
:10D970006FF800212046FFF757FF98E76A89012AD0
:10D9800009D02948294B2B49C01AC008000440F08F
:10D990000200FAF75DF8AE89012E07D02248234B2A
:10D9A000C01AC008000432462349DEE7E989002294
:10D9B0002046FFF78DFC0028DBD1204B324619783A
:10D9C0002046FFF74BFC72E71C4E20463178FFF7EC
:10D9D0002DFC00283FF46BAF317800222046FFF782
:10D9E0003DFCEE8836B11048104BC01AC008000448
:10D9F0003246B9E7EA89012A05D00B480B4BC01A19
:10DA0000C0080004D0E7297C003918BF0121B1E724
:10DA10002B320020D5D302002E3200202D320020E0
:10DA20002C32002028320020B41103003C110300E6
:10DA3000251E03005F1E0300991E03002A320020EA
:10DA4000AFDF7047B1DF7047B2DF7047B3DF7047B9
:10DA500010B50446808800F02FFA60802046BDE8AB
:10DA6000104001F0B7BA0000F0B5204B204E93E80B
:10DA7000030089B001AD85E803004FF6FF773088D9
:10DA8000B84217D00022294600F0A8FE044638B359
:10DA90001422002103A803F0A8FA3388ADF810304F
:10DAA000112C07D0862C07D107238DF80C3003A842
:10DAB000FFF7CEFF09B0F0BD2046FCF7A7FD0D4DE6
:10DAC00033880D4902460D482D1AED082D0445F006
:10DAD0000100F9F7C6FF08238DF80C300594E6E73E
:10DAE000308800F0E8FE3080C9E700BFD420030092
:10DAF00030320020BC110300F01E03003C11030073
:10DB0000044B1A884FF6FF739A4201D0FFF7ACBF5F
:10DB1000704700BF30320020024B4FF6FF721A8070
:10DB200000207047303200202DE9F04F87B080464A
:10DB300000F094F94FF6FF739842064675D03C4DBD
:10DB40003C4BED1AED082D0445F0010501273A463E
:10DB500002AB0821304601F05FF80137BFB204463E
:10DB600000285DD1DDF80CB0DA464FF003094AF821
:10DB7000069B4B460BF1040251464046FFF764FFFB
:10DB8000034698BB04AA0821304601F041F858B179
:10DB9000052814D0FCF73AFD27490246434628469B
:10DBA000F9F75FFF4B4610E00599BBF804308A880F
:10DBB0009A4204D10631504603F0B7F948B13246D3
:10DBC0000821304601F0ECF80346184607B0BDE8DE
:10DBD000F08F0821304601F091F828B1FCF716FDCE
:10DBE000164903463246DAE70B23EEE70C2815D038
:10DBF000052800D1234608213046019301F07EF824
:10DC0000019B40B1FCF702FD0C4903463246284611
:10DC1000F9F727FF0323002C99D1D6E70124EAE77F
:10DC2000072814BF03460C23CFE743F20203CCE7D7
:10DC3000BC1103003C110300451F03007D1F0300BE
:10DC40002DE9F341054600F009F94FF6FF739842BC
:10DC500022D10024032627464FF0010833462246EE
:10DC600039462846FFF7EEFE04282BD0082830D08E
:10DC70000B2828D116F0020319D1E7B9FCB91648D0
:10DC8000164B17491B1ADB081B042A4643F00100F8
:10DC9000F9F7DEFE0B2019E06A46082100F0B8FF14
:10DCA0000028D6D1019B9C881E689F1DD4E70126C1
:10DCB0004FF00008D2E703261C461F46F8E703266C
:10DCC0003C46F5E71120B8F1000FE3D002B0BDE803
:10DCD000F0810020F7E700BF3C110300BC110300F6
:10DCE000FC1F03001FB50DF10703039300F0B6F806
:10DCF00002AA012100F08CFF20B9039B187805B01F
:10DD00005DF804FB0020FAE770B505461048FFF700
:10DD10009DFE70B90E4C43F2030621884FF6FF7248
:10DD20002846FFF78DFEB04211D1238801332380AE
:10DD3000F3E7FCF76BFC074B0749024607481B1A41
:10DD4000DB081B0443F00100F9F782FE032070BDDD
:10DD500032320020BC110300742003003C11030088
:10DD600013B5074A044692E803006B4683E80300B4
:10DD700000221946204600F031FD02B010BD00BF60
:10DD8000DC20030046DF7047421E00F10F0312F84B
:10DD9000010F10B99A42FAD170470120704708B5B7
:10DDA00070B171B103780A78534013F0FE0F08D1B7
:10DDB00006220131013003F0B8F8B0FA80F04009D2
:10DDC00008BD0020FCE72DE9F04700F101084F1CD9
:10DDD00006460D4600F1110901F1110A10223946DB
:10DDE000404603F0A2F80446D0B94046FFF7CCFF06
:10DDF00018B13846FFF7C8FF044651464846FFF7BA
:10DE0000CEFF737C03F0FC03042B05D06B7C03F086
:10DE1000FC03042B18BF044604F00100BDE8F087A2
:10DE20000024EAE77FB505460E4600F0A1FC02AAF1
:10DE30000DF10601072000F0A3FC10B94FF6FF74A6
:10DE400009E0BDF80640B442F1D003992846FFF737
:10DE5000BAFF0028EBD0204604B070BD132810B5DF
:10DE6000044602D94FF6FF7010BDFFF771F9002884
:10DE7000F8D00A20014B4443185BF5E73432002008
:10DE8000132838B505460C4602D943F2020038BDC6
:10DE9000FFF75EF90028F8D0064B0A2000FB05309A
:10DEA000D0F802302360C388A380037AA3710020D6
:10DEB000EDE700BF343200204FF6FF7398422DE9A2
:10DEC000F04105460CD00C4F00244FF00A0808FB27
:10DED00004F3A6B2DB5BAB4205D00134142CF6D1BF
:10DEE0004FF6FF7604E03046FFF732F90028F4D011
:10DEF0003046BDE8F08100BF34320020038843B9CA
:10DF0000821C0A3012F8013B1BB98242FAD1184632
:10DF100070470120704710B50446FFF7EFFF58B176
:10DF200022880B889A4208D108220231A01C02F0F4
:10DF3000FCFFB0FA80F0400910BD0020FCE730B5CE
:10DF400085B0044600F014FC02AA0DF1060107207A
:10DF500000F016FC10B94FF6FF700FE0039D20464D
:10DF600005F14601FFF7D7FF30B905F12A01204638
:10DF7000FFF7D1FF0028E7D0BDF8060005B030BD9F
:10DF800013289FBF0A235843014B1952704700BF03
:10DF90003432002038B50546FFF78EFF0446284688
:10DFA00000F0B6FE38B9132C05D80A235C43024BA7
:10DFB0004FF6FF721A5338BD3432002070B58CB062
:10DFC00014466A460D4600F11003164613F8011D6B
:10DFD00002F8011B9842F9D10D22002104A803F098
:10DFE00004F82B788DF81F306B788DF81E30304692
:10DFF000AB788DF81D30FFF7C5FE9DF82F302370EC
:10E000009DF82E3063709DF82D30A3700CB070BD5C
:10E010001FB5034608461A7802F0FE02042A1BD1F7
:10E02000DA78B3F801108DF806209A88ADF804105C
:10E030009B79ADF80C2003A902AA8DF80E30FFF7EA
:10E04000BDFF032202A901A802F06FFFB0FA80F021
:10E05000400905B05DF804FB0020FAE730B50388FD
:10E06000102B93B04ED1041D0FCC07AD0FC50FCCB4
:10E070000FC594E807009DF8203003F0FE03062B3F
:10E0800085E8070009D000F073FB9DF82030032BD2
:10E090004FEA530204D9022A3DD04FF6FF7310E035
:10E0A00002AA0DF10601072000F06AFB0028F4D057
:10E0B000039908A81131FFF772FE0028F0D0BDF8CF
:10E0C0000630BDF81C4018480A226243811883526A
:10E0D0009DF8262008980A724FF6FF72C1F80200D8
:10E0E0009342BDF82400C8800CD0ADF80C3002A8D3
:10E0F0000023ADF80A408DF8083000F06DFF02A84B
:10E10000FFF7CAFA13B030BD039908A80131FFF731
:10E110007FFF0028D3D102AA0DF10601072000F0ED
:10E120002FFB0028F0D1B8E73432002090DF704791
:10E13000A5DF7047B5DF70477FB50023ADF8081045
:10E14000ADF80A106A4602A90646ADF80C30ADF8E3
:10E150000E300093ADF80430FFF7E8FF054600B33A
:10E16000114B124CE41AE408FCF750FA240444F072
:10E17000010403460E4932462046F9F772FCBDF809
:10E180000020BDF8023052EA030103D009492046BD
:10E19000F9F767FCBDF804201AB107492046F9F7E2
:10E1A00057FC284604B070BD3C11030084110300E5
:10E1B000FC200300462103008521030078B14FF0C5
:10E1C000171303601B2303711723C380038141F6D8
:10E1D0001B320023016143818281184670470E2063
:10E1E0007047000013B5034680880C46B8B91A88FA
:10E1F000242A00F09B8014D8112A74D0232A00F01E
:10E20000A680102A3ED0A37A4BB1E1880020FFF708
:10E210008FFF002840F0A1804FF48073638102B02B
:10E2200010BD3A2A67D0552AEDD1DB88C988A07283
:10E23000172B38BF17238B4228BF0B462381FFF7CC
:10E2400079FF60B1FCF7E2F94D4B4E4902464E486A
:10E250001B1ADB081B0443F00100F9F7F9FBE27A13
:10E26000002AD0D12369002BCDD040F67721ADF81C
:10E2700002202289ADF80010ADF80420694620463E
:10E280009847C0E7DB7B0A790A73012B13D0022B76
:10E2900014D0E18823898B4205D20020FFF748FF84
:10E2A00070B90123E372217B637B8B42ABD20020E8
:10E2B000FFF742FFA7E70B88E380EAE74B88FBE71D
:10E2C000112802D10123A372EDE7FCF79FF92C4B33
:10E2D0002E4902462C481B1ADB081B0443F00100A0
:10E2E000F9F7B6FBDFE71723CB800B8141F61B3331
:10E2F00048818B8187E75B89CA88934228BF134690
:10E30000172B0A6938BF17230B8162B1C97A51B143
:10E3100040F67721ADF80010ADF80200ADF80430FA
:10E32000694620469047002363816CE71A7A0B699F
:10E330004A73002B3FF467AF4DF67A218DF8050044
:10E34000ADF80010ADF802008DF8042096E7197AB8
:10E35000237B994228BF1946AAE711283FF45FAFF3
:10E36000FCF754F9064B0949024607481B1ADB081B
:10E370001B0443F0010002B0BDE81040F9F768BB90
:10E38000841103000C2203003C110300DB21030075
:10E39000B0DF704766DF704710B500210446408843
:10E3A000FFF7F8FF034608B9237210BD112801D109
:10E3B0000123F9E76368BDE81040184760B159B11F
:10E3C0000378DE2B0AD00B684360DE2303704FF620
:10E3D000FF734380002070470E207047082070476D
:10E3E00028B10378DE2B04D14180002070470E2035
:10E3F000704708207047F0B5054685B00C460029E7
:10E4000042D0002840D00B78DE2B3DD182884B884B
:10E410009A4204D10B7A13B10846FFF7BDFF2B884F
:10E42000112B33D0512B0FD0012B2DD12B7A012B57
:10E430002AD1A9886288914226D12046237205B04C
:10E44000BDE8F040FFF7A8BFAE886388B3421BD198
:10E45000AF79022F18D1AD7B2B1F022B14D80021CE
:10E460001022684602F0C1FD052D18BF4FF4C0739D
:10E470006946304618BFADF804308DF80070FFF7DC
:10E4800087FF08B16368984705B0F0BD6388AA8824
:10E490009A4204BF4FF6FF736380F5E7012804D06A
:10E4A000043805288CBF0020012070474FF6FF7309
:10E4B000438000F0DBBA00002DE9F041264F002335
:10E4C0008AB04FF6FF70CDE900333B7000F01CFDC1
:10E4D0004FF6FF78044648F20966444513D0A4F588
:10E4E0008045ADB26A4602A92846FBF753F8B04210
:10E4F0000CD02846FAF7E6FF48F207639842064632
:10E500000CD101233B700AB0BDE8F081204600F039
:10E510009DFC204600F0F8FC0446DEE7002EF2D019
:10E520000E480F4D0F492D1AED082D042346324693
:10E5300045F00100F9F795FA142200210DEB0200D5
:10E5400002F053FD082305A88DF81430ADF81840EB
:10E550000796FFF7ABFFD6E7043300203C1103001A
:10E56000DC1103004822030070B5044686B014266F
:10E570003246002101A802F038FDA0892378304DF1
:10E5800000F5804080B2042BADF808003CD008D8DC
:10E590005A1E022A11D92B780BB1FFF78DFF06B056
:10E5A00070BD052BF7D16368002B43D18DF8046053
:10E5B0004FF6FF73ADF808301DE043F6FE76B0422B
:10E5C000E18904D901F5804292B2B242E3D8DA1E61
:10E5D000534253418DF80D30A368049363688DF85E
:10E5E0000C1063B909238DF804309DF8143043F002
:10E5F00001038DF8143001A8FFF758FFCBE70A227A
:10E600008DF804200593F6E743F6FE739842C2D8CE
:10E61000E389002BBFD163683BB90B238DF804302D
:10E6200000F014FC01232B70E5E70C228DF8042088
:10E630000393F7E715228DF804200393B8E700BF92
:10E640000433002007B50023A1F58041A0F58040E8
:10E65000CDE9003389B26B4680B2FAF781FF00281A
:10E6600018BF052003B05DF804FB000030B520485A
:10E6700089B0FAF7A1FD70B11E4A1F4B1F499B1AC2
:10E68000DB081B04024643F00100F9F7E1F903241B
:10E69000204609B030BDFAF7A5FD044660B1154B20
:10E6A00015481749C01AC0080004224640F001006E
:10E6B000F9F7CEF98624EBE700F0A8FBCDE9034497
:10E6C00003AA05A94CF20700FAF757FF0028DFD18B
:10E6D00001A905A8FAF7A0FE019B9D8805F58045D4
:10E6E000ADB205A8FAF7BEFE284600F097FBE7E7B3
:10E6F00069E502003C110300DC11030094220300D1
:10E70000D6220300F0B5FF2887B004460E46154612
:10E710001F462BD80846FFF7C1FE38B303AA204690
:10E72000FFF790FF18B10524204607B0F0BD01A9FE
:10E7300003A8FAF771FE04460028F4D1019BAE70DD
:10E740005E8802992E8027B9696003A8FAF78AFECD
:10E75000EAE73F686868B600B74228BF37463A46DE
:10E7600002F01AFCBE42F0D90C24DDE70724DBE7F7
:10E77000024B0022C3E90022704700BFFC32002098
:10E78000F0B587B00646FFF789FE0F4615460446EA
:10E79000F8B1A6F58040104A03A980B2FAF7EDFE61
:10E7A00018B10024204607B0F0BD01A903A8FAF76C
:10E7B00033FE0028F5D1019BAE705A889B882A80D1
:10E7C00003F58043029A6A6003A83B80FAF74AFE89
:10E7D000E8E70124E6E700BFFC32002070B5FF281F
:10E7E00086B006460B4615464AD889780846FFF794
:10E7F00055FE002844D0A6F58042ADF80020A1F5D2
:10E800008042ADF802205A6801921B88029303AA45
:10E810003046FFF717FF0528694603A812D1FAF71B
:10E8200045FE0446A8B1A0F50643023B0B2B19D8C0
:10E830000B2B17D8DFE803F0141616160926161648
:10E8400016161626FAF736FEEBE78624204606B0A3
:10E8500070BD002DFAD0294603A8FAF7A8FEF5E707
:10E860001024F3E70848094D09492D1AED082D0435
:10E870002246334645F00100F9F7F3F80324E5E7B3
:10E880000724E3E71124E1E73C110300DC11030056
:10E89000142303004FF6FF7000F0C0BAFF2808B53C
:10E8A00005D800F0C1FAFFF707FE002008BD0720D9
:10E8B000FCE700F0E1BA00F00DBB00F025BB000062
:10E8C0000A68084B70B50C25032A01D9002006E020
:10E8D00005FB02F4E65A864202D10A60181970BD9F
:10E8E0000132F1E75C34002037B500230D460446C1
:10E8F000019301A9FFF7E4FF38B18378AB4206D159
:10E90000837A9B0703D143680BB903B030BD019BE9
:10E910000133019301A92046ECE710B5044600F04D
:10E920000FFD204601F072FF2046FFF7E9F8204670
:10E93000BDE81040FEF7CCBE70B50E4E0446002573
:10E94000237AAB420DD84FF6FF732380A3700023C8
:10E9500063604FF47F432381A37A23F00303A37200
:10E9600070BD617A2944C9B2304601F034F90135ED
:10E97000E6E700BF4C34002037B50023CDE9003373
:10E98000417A83788DF802300446324801F00AF962
:10E9900060B93148314B627A3149C01AC00800046D
:10E9A00040F00100F9F754F8032046E0237AA278FA
:10E9B0008DF8022003EB83039B00ADF80030531E5B
:10E9C0000190072B08D8DFE803F02207070707228A
:10E9D00004241423ADF800302246694632F8040BB3
:10E9E000FFF7FCFE11282AD017D810B3072824D02F
:10E9F000FBF70CFE184D23881A49024617482D1ABA
:10EA0000ED082D0445F00100F9F72BF8CCE70123C0
:10EA1000E0E7838809339B08DCE78628E8D1A37AFE
:10EA200023F0030343F00103A3720F4B01221A707A
:10EA300003E0A37A23F00303A37203B030BDA37AEB
:10EA400023F0030343F00203A372074B01221A7061
:10EA50000020F2E74C340020D41103003C110300E5
:10EA60007B230300BB230300483400202DE9F0473B
:10EA70003E4FC16886B005463A4600233E46506880
:10EA800081421BD10C2000FB03602B78DFF8EC8067
:10EA90000A2B1AD0142B4AD0092B4AD16C7A002C9D
:10EAA00047D1002847D0FFF747FF2846FFF735FF3B
:10EAB00098F800308BB906B0BDE8F0870133042B1D
:10EAC00002F10C02DBD10020DFE76C7A8CBB90B343
:10EAD000837A446043F002038372002588F8005073
:10EAE0004FF00C094FF0010A09FB05639B7A990767
:10EAF000C3F3400201D4DB0732D588F800A002B985
:10EB000074B33846FFF738FF50B34FF6FF72ADF8D5
:10EB100006200C2255438628725BADF808200CD1E4
:10EB200007238DF8043001A8FFF7F7FEC3E701249F
:10EB3000BBE70024B9E70446B7E708228DF80420B4
:10EB40000390FBF763FD0A4C735B0A4902460A48CF
:10EB5000241AE408240444F00100F8F782FFE2E7F5
:10EB60000135042D07F10C07BED1A4E75C34002069
:10EB7000D4110300EA2303003C11030048340020B1
:10EB80001C4BF7B500221E464FF6FF754FF0FF0CE9
:10EB90000C27104607FB02641D809D7083F809C096
:10EBA000A17A013221F00301042AA17203F10C03BE
:10EBB00003F8040C43F8080CECD15023CDE90023F2
:10EBC0000D490E4B0E484FF4A07200F0D7FF0346DC
:10EBD00068B1FBF71BFD0B4B0B4902460B481B1A98
:10EBE000DB081B0443F00100F8F732FF032318464B
:10EBF00003B0F0BD5C340020083300208C340020CA
:10EC00004C340020D41103004A2403003C110300BB
:10EC10000023FFF777BD00002DE9F04180460E4646
:10EC200014461F46002B5DD0CB1F012B5CD8531E12
:10EC3000032B59D8FFF758FE054610BBFF214FF6AE
:10EC4000FF70FFF751FE0546C8B1A0F8008086703E
:10EC50006B7AFF2B1AD12548214600F0D4FFFF28FC
:10EC6000687229D14FF6FF732B8000236B604FF43D
:10EC70007F432B81AB7AA87023F00303AB72112082
:10EC800018E0037AA342E3D00F2013E04FF000080E
:10EC9000697A16482C7200F085FF80B9144B15482C
:10ECA0006A7A1549C01AC008000440F00100F8F75C
:10ECB000CFFE0320BDE8F0814FF00108E8E704EB48
:10ECC000840424010334C4F38D04BE7078603C8056
:10ECD000B8F1000F04D0082E02D1A400063C8480B5
:10ECE0000020E7E70E20E5E70720E3E74C340020AB
:10ECF0003C110300D41103006824030008B5FFF79A
:10ED0000F3FD18B1FFF718FE002008BD0520FCE751
:10ED10007FB500230546039303A9FFF7D1FD044601
:10ED2000A8B92846FFF7BAFD014640B3072826D008
:10ED3000FBF76CFC164C174903461748241AE408E5
:10ED400024042A4644F00100F8F78BFE16E0A1786F
:10ED50002846FFF7D3FFA8B1052813D0FBF756FCD0
:10ED60000B4EA378009302460B480C49361AF6085E
:10ED700036042B4646F00100F8F77DFE03210846D5
:10ED800004B070BD039B0133039303A92846C4E775
:10ED9000D4110300322503003C110300DC240300DE
:10EDA000CB1F012B70B506460C46154601D907202E
:10EDB00070BD1046FFF77DFD0028F8D02146304693
:10EDC000FFF792FD28B184700580BDE87040FFF721
:10EDD000D3BD0520ECE710B54FF6FF7304469C4207
:10EDE00008460AD14FF48071FAF73EFD84B2B4F5BB
:10EDF000807F09D14FF6FF7406E0FF2CFAD8214638
:10EE0000FAF711FD0028F5D1204610BD0248402236
:10EE1000002102F0EAB800BF903400200149FFF75A
:10EE2000DABF00BF903400204FF6FF73984210B550
:10EE3000044606D00449FFF7CEFF231A5842584132
:10EE400010BD0020FCE700BFB0340020FF2807B54C
:10EE500001460AD801900648FAF7F3FC01990548E3
:10EE600003B05DF804EBFAF7ECBC03B05DF804FB0B
:10EE700090340020B0340020FF28014602D8024818
:10EE8000FAF7E9BC0020704790340020FF280146C3
:10EE900002D80248FAF7DFBC00207047B0340020E7
:10EEA0004FF6FF73984270B518BF441C0E4614BF4E
:10EEB000A4B20024A5B2FF2D02D94FF6FF7506E0DB
:10EEC00021463046FAF7C7FC01340028F2D0284624
:10EED00070BD000070B50B490A4EFFF7E1FF4FF619
:10EEE000FF750446AC4201D1204670BD2046FFF7B5
:10EEF000CDFF0028F8D020463146FFF7D1FF044669
:10EF0000F0E700BF903400200149FFF7C9BF00BF00
:10EF1000B0340020F8B5074D074E0746002433787B
:10EF2000A34200DCF8BD55F8043B3846984701344D
:10EF3000F5E700BFD8340020E734002070B5204B3F
:10EF40001B7886B00446002B37D0038885881D4E79
:10EF5000102B2DD10021142201A88DF8031002F0EE
:10EF600044F801238DF804304FF6FF73ADF80830F4
:10EF700004F10803039301A80DF103030493ADF812
:10EF80000650FFF7C7FF28469DF803203178FEF7AB
:10EF900065F99DF8030080B92046FFF75FF8204629
:10EFA00001F082FC204606B0BDE87040FEF772BC5E
:10EFB00031782846FEF73AF9EDE706B070BD00BF9C
:10EFC000E63400202623002008B1FFF7A3BF7047D6
:10EFD000FFF7A0BFFFF79EBFFFF79CBF10B5FFF77D
:10EFE00045FB80B1FBF712FB324C334A33490346F1
:10EFF0003348241AE408240444F00100F8F731FDF2
:10F000000324204610BDFFF7BBFD50B1FBF7FEFA0D
:10F01000284C294A2B4903462948241AE408240489
:10F02000EAE701F013FC50B1FBF7F0FA214C224A59
:10F03000254903462248241AE4082404DCE700F0AA
:10F0400015FF50B1FBF7E2FA1A4C1B4A1F49034661
:10F050001B48241AE4082404CEE7FEF783FB50B1D2
:10F06000FBF7D4FA134C144A194903461448241ADE
:10F07000E4082404C0E7FEF74FFD044650B1FBF757
:10F08000C5FA0C4C0C4A134903460D48241AE408EF
:10F090002404B1E7104B4FF6FF721A800F4B186033
:10F0A0000F4B18700F4B01221A70FEF7B5F80E4B7C
:10F0B0001870A6E7AC11030088270300952503000C
:10F0C0003C110300BF250300E925030012260300BD
:10F0D0003C26030066260300E4340020EC340020C4
:10F0E000E8340020E634002026230020084B1B785B
:10F0F00053B1084A1378022B08D8074941F8230076
:10F1000001331370002070470820704704207047B7
:10F11000E6340020E7340020D8340020034B1B786D
:10F120000BB101F0DBBB0820704700BFE6340020C4
:10F1300008B5054B1B782BB101F0EEFB082808BF82
:10F14000112008BD0820FCE7E6340020034B1B78A3
:10F150000BB101F0B9BA0820704700BFE6340020B7
:10F16000034B1B780BB1FEF715BF0820704700BF9B
:10F17000E6340020F0B5224B1B7889B0002B3CD040
:10F18000204F01234FF6FF703B70FFF794FB4FF6C3
:10F19000FF76B042044619D100251422294603A85F
:10F1A0003D7001F022FF0D2303A88DF80C30ADF85F
:10F1B0001040ADF80E40FFF7ADFE284609B0F0BD97
:10F1C0002046FFF778FBB0420446F6D02046FFF712
:10F1D000C7FF05460028F3D0FBF718FA0A4D0B4A83
:10F1E0000B49009403460B482D1AED082D0445F0F9
:10F1F0000100F8F740FC0325DFE70825DDE700BF45
:10F20000E6340020D4340020AC110300782703003A
:10F21000912603003C1103002DE9F04F87B0814691
:10F220000193334B1B7888461646002B5ED04FF671
:10F23000FF70FFF740FB00250423CDE9025302AB2A
:10F24000059304AA03AB062104460495FFF75AFA76
:10F25000072849D04FF6FF77BB464FF0FF3AF0B191
:10F26000052825D04FF6FF739C422DD1A34529D008
:10F27000A7420CBF05200020B9F1000F01D0A9F86A
:10F2800000B0B8F1000F01D0C8F8005006B13780C7
:10F29000019B0BB1C3F800A007B0BDE8F08F029B43
:10F2A000AB4224BFA3461D4653453CBF27469A4662
:10F2B0002046FFF700FB03AB04AA06210446FFF734
:10F2C00021FACCE70520D7E7FBF7A0F9094D0A4959
:10F2D00002460A482D1AED082D0445F00100234688
:10F2E000F8F7BFFB0320D7E70520D5E70820D3E7D1
:10F2F000E6340020AC110300D92603003C110300C2
:10F3000038B50C4C0C4D00231A4621462846FFF711
:10F3100083FF05280AD14FF6FF732B80002323605B
:10F32000431F58425841054B187038BD0028F7D18B
:10F330000120F8E7D0340020E4340020E834002035
:10F34000F0B5044687B08088FEF7B6FD237860806C
:10F35000093B032B20D8DFE803F002253569637AE7
:10F360005BB9414A116851B1E068814207D113602D
:10F370003E4AA1881180E3600EE0012B0CD13C4B8A
:10F380001B784BB1394BA2881B889A4204D1237A4F
:10F39000062B01D1FFF7B4FF204607B0BDE8F040CF
:10F3A000FFF7B8BD637A002BF6D12F4A1168002908
:10F3B000F2D0E0688142EFD12E4913600A68013A29
:10F3C0000A60D8E72C4F3B786BB90125284B1B7896
:10F3D00033B1264BA2881B889A4201D1FFF790FFD8
:10F3E000002D3ED0D8E74FF6FF70FFF764FA4FF6D6
:10F3F000FF7398420546E8D1FFF75FFAA842064638
:10F40000E3D100251422294601A83D7001F0EDFD4D
:10F410000D2320468DF80430ADF80860ADF8066085
:10F42000FFF778FD01A8FFF775FDCFE7124B1A78BB
:10F43000002AB1D00021142201A8197001F0D5FDD5
:10F440000E238DF804304FF6FF73ADF80830ADF899
:10F4500006302046A3680393FFF75CFD01A8FFF781
:10F4600059FD07B0F0BD00BFEC340020E4340020AB
:10F47000E8340020D0340020D43400202DE9F041BD
:10F48000374B1B7888B00546002B65D0354B364C82
:10F4900093E80300237801AF87E803004BB1DFF85E
:10F4A000D480D8F8004054B11124204608B0BDE8FB
:10F4B000F081FFF725FF2378002BF5D0EFE72B4AEB
:10F4C0002B4E12883368AA421DD1F3B11422214673
:10F4D00003A801F08AFD092328468DF80C30FEF7B9
:10F4E000EBFC0623ADF814309DF81C30ADF80E008F
:10F4F00064F3000303A8ADF8105006948DF81C3097
:10F50000FFF708FDD1E75A1C28D00133194A3360B0
:10F5100039462846FFF762F904460028C5D0002383
:10F52000C8F800303368112803F1FF333360BBD0D3
:10F530008628BAD00728B8D0FBF768F80E4C0F49D8
:10F5400002460F48241AE408240444F001002B4624
:10F55000F8F787FA0324A8E70824A6E71324A4E70A
:10F56000E634002070270300E8340020E434002053
:10F57000D0340020EC340020AC110300212703001C
:10F580003C11030076DF704773B5054669B901A9E0
:10F59000FFF7DCFD43F20202904202D008B1F8F717
:10F5A00051FD9DF804309B0748D400212846FFF701
:10F5B000BFFD0646002841D011283FD0204C214BEA
:10F5C000E41AE4080D284FEA044416D144F002047A
:10F5D0001D4920462A46F8F73BFA13212846FFF733
:10F5E000D1FF58B3FBF712F8184902462B462046C4
:10F5F00002B0BDE87040F8F734BA0B2808D11449BE
:10F600002A4644F0020002B0BDE87040F8F720BA84
:10F6100043F20203984202D10E492A46F1E7FAF773
:10F62000F5FF0D4902462B4644F00100F8F719FAA0
:10F63000304602B0BDE87040F8F704BD02B070BDBE
:10F64000C41103003C1103009027030001280300AC
:10F650003828030096280300E02803002DE9F04134
:10F660000378152B86B0044604D8062B05D84BB377
:10F67000032B4DD006B0BDE8F081073B0E2BF9D827
:10F6800001A252F823F000BF2FF7020075F6020026
:10F69000E3F7020075F60200E3F7020075F60200D8
:10F6A00075F6020075F6020075F6020075F60200A6
:10F6B00075F6020075F6020075F60200EBF702001F
:10F6C00037F802008088FFF7D9FE862801D011287C
:10F6D00013D16049604A0B68A08822F813000133F7
:10F6E0005A4202F0070203F0070358BF53420B606F
:10F6F00006B0BDE8F04100F0C3B8132803D8574B5B
:10F70000C340DB07B6D406B0BDE8F041F8F79ABCB9
:10F71000037A012BAED884881422002101A801F0BD
:10F7200064FC01A8ADF80840FFF798FFA2E74C4E33
:10F730003378002B9ED14B4B4B4D4C4F4C49ED1A1F
:10F74000ED082D0445F003084046F8F77DF93B78B5
:10F75000002B3AD101A8F9F733FF044608B1F8F7B6
:10F7600071FCBDF80A30002B14BF012200223A7050
:10F7700028D101AA19461846FFF74EFD044678B96C
:10F78000BDF804203B494046F8F762F9BDF8040093
:10F79000FFF7E6FC044608B1F8F754FC01233B7080
:10F7A000052C05D1344945F00100F8F74DF961E722
:10F7B000062C03D1314945F00200F6E72CB1204672
:10F7C000F8F740FC002C7FF455AFF9F7A3FE10B911
:10F7D000012333704EE748F2076290423FF44AAF8C
:10F7E00091E7224B01221A7044E71D4B1A4D002469
:10F7F0001C701E4B1C70174B1F684FF6FF76E319E9
:10F800005A4202F0070203F0070358BF534235F88B
:10F810001380B0450BD025F813601422002101A8F5
:10F8200001F0E3FB01A8ADF80880FFF717FF0134F2
:10F83000082CE4D11EE70A4B00221A70836848F2B4
:10F840000D6293423FF454AFB3F5064F7FF412AF0D
:10F850004EE700BFF434002028230020C100080038
:10F86000F03400203C110300C411030027230020C2
:10F870001B29030036290300602903007E290300A9
:10F880007FB51422002101A801F0AFFB072301A8D6
:10F890008DF80430FFF7E2FE07B05DF804FB0000CE
:10F8A00030B5027885B00446152A00F2E780DFE81B
:10F8B00012F02C002C002C0016002E002C002C0026
:10F8C0004700540061007C009700A500B900C20009
:10F8D0002C00CD002C002C002C002C00D8004088DF
:10F8E0006B4DFDF73FFC6B4B227A6B49ED1A6B4B6E
:10F8F000ED0853F822306A4A00932D0452F8202074
:10F90000638845F00300F8F7B6F805B030BD4088CD
:10F910005F4DFDF727FC5F4B6249ED1A6389019348
:10F92000227A5E4B53F8223000935D4A638852F886
:10F930002020ED082D0445F00300F8F7A8F8E4E7CF
:10F940005348544B5849C01AC008000440F0020004
:10F9500005B0BDE83040F8F777B88068FAF756FE92
:10F960004B4B524902464B481B1ADB081B0443F021
:10F9700001003EE0474B4648617A4D4D227AC01A5D
:10F980004C4B53F82110237C13F0010F4A4B18BF46
:10F990002B46CDE90013C008484B494953F82230A3
:10F9A000A288000440F00300C7E7017A434B828835
:10F9B00053F82130407A3F49039251F82050206992
:10F9C0000293334CFAF722FE3249641AE408240405
:10F9D000CDE90050DDE902323A4944F00200ACE7DB
:10F9E0002B482C4BA2883849C01AC008000440F0AC
:10F9F000010005B0BDE83040F8F72AB88288806879
:10FA00000292FAF703FE224C029A3049034621483B
:10FA1000241AE408240444F0010005B0BDE8304095
:10FA2000F8F71FB81A481B4B2949C01AC008000430
:10FA300040F003008CE78068FAF7E8FD144B254995
:10FA4000024614481B1ADB081B0490E7114B1048B0
:10FA500062882149C01AC0080004A38840F002004F
:10FA6000DBE78068FAF7D2FD094B1C4902460948DA
:10FA70001B1ADB081B0443F00200BAE70448054BDD
:10FA80001749C01AC008000440F00200B1E700BFE7
:10FA9000C41103003C110300BD290300882D03009D
:10FAA0007C2D0300FA2903004C2A0300622A03007C
:10FAB000A71203004C2D03008D2A0300542D0300D0
:10FAC000992A0300DC2A0300262B03004D2B030098
:10FAD0007A2B03008D2B0300B12B0300ED2B0300C9
:10FAE0001C2C030010B50446FFF7DAFE217821B97B
:10FAF0006088BDE81040FFF747BD08290FD10848CE
:10FB0000084B09491B1ADB081B0443F00100F7F7F7
:10FB10009BFFA06818B1BDE81040F8F793BA10BD7C
:10FB20003C110300C41103003A2C030010B5037804
:10FB3000042B04461AD10E480E4B62880E491B1A3C
:10FB4000DB081B0443F00200F7F782FF60881321F3
:10FB5000FFF718FD43F202029042034606D033F04D
:10FB6000080303D0BDE81040F8F76CBA10BD00BF21
:10FB70003C110300C4110300E327030070B5DDE965
:10FB8000045468B161B15BB104FB05F6964207D835
:10FB900035B12CB1C0E90013C0E90254002070BD9A
:10FBA0000720FCE738B50D46044608B9002038BDEB
:10FBB0000368002BFAD040680028F7D0FF29F5D061
:10FBC000BFF35F8FF9F747FE0028EFD0E0682368A6
:10FBD00000FB0530EBE738B50D46044690B10368ED
:10FBE00083B1406870B1FF290CD0BFF35F8FF9F784
:10FBF00032FE38B16068BFF35F8F2946BDE83840F8
:10FC0000F9F71FBE38BD2DE9F0418846064618B900
:10FC1000FF242046BDE8F0810368002BF8D043683C
:10FC2000002BF5D00027FF24B368FDB2AB42EFD91B
:10FC300070682946F9F7F7FDBFF35F8F40B9FF2CD5
:10FC400008BF2C462D1B01354545E2D00137EBE7B7
:10FC5000FF2C07D1FF24F9E721463046FFF7BBFF11
:10FC60000134E4B2AC42F7D3F4E77EDF70477FDFC4
:10FC7000704786DF704710B50378182B044602D111
:10FC8000FDF7CAFA207010BD10B504464088FEF793
:10FC9000E5F8A0802046BDE8104000F079BD10B521
:10FCA00086B004461422002101A801F09EF9052324
:10FCB00001A88DF80430ADF80640FFF7E5FF06B067
:10FCC00010BD30B587B005460C461422002101A8AE
:10FCD00001F08BF9082301A88DF80430ADF8065027
:10FCE0000394FFF7D1FF07B030BD0000F0B587B037
:10FCF00004460F4616460021142201A81D4601F0B5
:10FD000074F904238DF80430094BADF806401978D6
:10FD10008DF80C7000222046ADF80E608DF8105062
:10FD2000FDF79CFA01A8FFF7AFFF07B0F0BD00BFD9
:10FD3000392300207FB503238DF804300388ADF804
:10FD4000063043798DF80D1013F0040F14BF012312
:10FD5000022301A88DF80C30FFF796FF07B05DF87D
:10FD600004FB000030B5144B87B00C460122197813
:10FD70000546FDF773FA114B221E1978284618BF65
:10FD80000122FDF76BFA631E5A425A410C4B28467A
:10FD90001978FDF763FA1422002101A801F025F972
:10FDA000022301A88DF80430ADF806508DF80C4000
:10FDB000FFF76AFF07B030BD392300203B23002046
:10FDC0003A2300202DE9F047224B0F4619780446CC
:10FDD0009046FDF72BFA002839D01F4B20461978A2
:10FDE000FDF724FA014678B31C4B20461978FDF73D
:10FDF0001DFA002804F580704FF0070180B214BF8F
:10FE00004FF001094FF00209FEF778FF064698B15E
:10FE1000052811D0FAF7FAFB114D12490246124893
:10FE20002D1AED082D0445F001002346F7F719FEC1
:10FE300031462046FFF745FF43463A4649462046AD
:10FE4000BDE8F047FFF752BF43463A46F7E7BDE843
:10FE5000F08700BF392300203B2300203A230020F5
:10FE6000EC110300942D03003C110300F8B5154F6D
:10FE7000154E164D164C3846FFF7FDFE3046FFF77F
:10FE8000FAFE2846FFF7F7FE2046FFF7F4FE3B7820
:10FE9000182B08D03378182B05D02B78182B02D0CC
:10FEA0002378182B0BD10B4B0B480C49C01AC008F8
:10FEB000000440F00100F7F7C7FD0320F8BD002063
:10FEC000FCE700BF392300203B2300203A23002019
:10FED000382300203C110300EC110300591D0300DE
:10FEE0002DE9F0418AB00D4690460446FDF73AF9F7
:10FEF00020220646002102A801F077F8012E08D141
:10FF0000424B002219782046FDF7A8F935B985271C
:10FF100016E0002EFAD143F202014AE02046FDF736
:10FF20009DFF4FF6FF73984212D100272B78DB0715
:10FF300022D4374BCDF814800993012E18BF002529
:10FF4000394602AB2A462046FFF791FE014630E0D3
:10FF5000012EEAD12D4F20463978FDF767F90028A8
:10FF6000E3D12046FFF79BFE39782046FDF75EF986
:10FF70000028DAD18527D9E7852FDED004F58070F7
:10FF800007216B46012280B2FEF746FE112801468A
:10FF90000FD090B1FAF73AFB1E4D1F4902461F4899
:10FFA0002D1AED082D04234645F00100F7F759FD01
:10FFB000032108460AB0BDE8F0810198502201F003
:10FFC00014F801990B46204603F8346B029301F1B3
:10FFD000180306934B1C079311310D4BCDF8148079
:10FFE0000993FDF74DFF0028A7D0FAF70FFB094D45
:10FFF0000B49024609482D1AED082D04234645F009
:020000023000CC
:100000000200F7F72EFD0821D3E700BF38230020B8
:10001000F8340020EC110300FD2D03003C11030017
:100020005F2E030038B505460C46FDF79BF8012806
:1000300008D154B121462846FFF717FE042808BF0F
:10004000112038BD43F20200FBE72046F9E700002B
:100050002DE9F0470388113B8AB00446092B65D887
:10006000DFE813F00A00640019003A00640064003D
:1000700064006400A6005301037A80883D2B41F29E
:100080003D014FF0000218BF4FF488510AB0BDE89F
:10009000F047FFF797BE8088FDF764F8012808D184
:1000A000217AA08801F00101C1F10201C9B2FFF774
:1000B00059FE34F8045F142200210DEB020000F019
:1000C00094FF043406238DF81430ADF816500794CD
:1000D00005A8FFF7D9FD29E000F110073846FDF724
:1000E0002EFF4FF6FF7398420546A08821D1FDF7F9
:1000F000B5FE0546A0880021FFF734FE4FF6FF73DA
:100100009D421AD100260023A0881A463146FFF7E7
:10011000B0FD0828074629D199489A4B9A49C01A38
:10012000C008000440F00200F7F78EFC0AB0BDE8FA
:10013000F0872946FDF724FFDCE705AA07212846BA
:10014000FEF766FD0028DDD1A37ED907DAD5069E2D
:1001500096F84430DA0701D53436D4E7394606F14B
:100160004600FDF7D8FE0028F6D1CBE798B1FAF7A4
:100170004DFA834E009502468248A3888349361A79
:10018000F608360446F00100F7F775FCA0883946FA
:10019000FFF797FDCAE7A37EDB07C7D5002EC5D1C1
:1001A000A088334641F206023146FFF79FFDBDE7C6
:1001B00090F808808588B8F1000F40F0A080744B5B
:1001C000061D197842462846FDF748F8617A11F075
:1001D000040105D130460AB0BDE8F047FFF7AABDDB
:1001E00005F580791FFA89F903AB012207214846FA
:1001F000FEF712FD0746B0B1FAF708FA604C654900
:1002000002466048241AE40824042B4644F0010006
:10021000F7F727FC39462846FFF753FD414630469D
:10022000FFF788FD82E72846FDF718FE4FF6FF73BB
:1002300098420446824630D101460498FDF7F2FD0B
:1002400050450446804600F08580DFF858A10146FD
:100250002846FDF795FE9AF800102846FCF7E6FFC1
:100260008046D0B92846FFF71AFD9AF800102846B4
:10027000FCF7DCFF01460028D1D048462246072182
:10028000FEF78EFD814650B90121C8E72146284678
:10029000FDF776FE4FF00108EFE7B846EDE7862858
:1002A0000ED1142200210DEB020000F09EFE072368
:1002B00005A88DF81430ADF81650FFF7E5FCE3E71C
:1002C000FAF7A4F92E4F3449009402462D483F1AFC
:1002D000FF083F042B4647F00100F7F7CCFB4946E7
:1002E0002846FFF7EEFC00213046FFF723FDB8F16A
:1002F000000F3FF41BAF2046FDF74CFE16E7427A95
:10030000414602F003022846C0E6244B8088197853
:10031000FCF78CFF054600287FF408AFA088FCF7A7
:1003200045FF0146A08839B9012341F206020AB00F
:10033000BDE8F047FFF7DABC154B2A461978FCF701
:100340008DFF03238DF81430A388ADF81630ADF877
:100350001C50BDE6FEF79EFA4045044696D1094B77
:1003600007480F49C01AC008000440F00100F7F721
:100370006BFB04212846FFF7A4FC39464FE700BF7A
:10038000EC1103003C110300AD2E03001D2F0300F0
:10039000392300208D2F03001A3003003B23002057
:1003A000E82F03003823002058B3027802F08203BC
:1003B000802B25D0C2F30213042B21D802F0F203C4
:1003C000322B1DD041788378994219D8062917D944
:1003D000102B15D8C17811F0040311D1007943070F
:1003E0000ED4084301070BD4D30700F0030003D455
:1003F000B0FA80F040097047003818BF01207047FC
:100400000020704770B515460E46142200210446A0
:1004100000F0EBFD2846FDF721FD2670A0806580E9
:10042000204670BDFEF7D0BD10B50378182B0446EA
:1004300002D1FCF7F1FE207010BD0000F0B531F0E4
:10044000080387B006460D46174628D0112926D046
:100450001D4C1E4BE41AE4080D294FEA044422D136
:1004600002461B4944F00200F7F7F2FA0421324633
:100470000DEB0100FFF7C6FF9FB13B7803F00103CE
:10048000C3F10203DBB28DF80C3000238DF810307D
:1004900041F20113ADF80E3001A8FFF7C3FF07B01A
:1004A000F0BD0223EFE70846FAF7B0F80949024623
:1004B000334644F00100F7F7D4FA3246082101A888
:1004C000FFF7A0FF0395E7E7E41103003C110300E9
:1004D00081300300363103002DE9F0411B4B88B019
:1004E0000027CDE904771B68039303AD04468846D3
:1004F00095E807006E4686E8070022460621284652
:10050000FFF780FF2846CDE90586FFF78BFF104BEC
:1005100000991A682046FFF7E3FCA0F111035A4244
:100520005A410C4B054619782046FCF797FE0A4BBA
:100530003A4619782046FCF791FE009A2946204653
:10054000FFF77CFF08B0BDE8F08100BF4435002014
:10055000383500203F2300203E2300200021FFF7F4
:10056000BBBF00002DE9F043054689B0914698468F
:100570000E4601BB3F4BCDE904111B68039303AC4E
:1005800094E807006F4687E807002A4606212046C0
:10059000FFF738FF2046CDE90567FFF743FF364BED
:1005A000009F1B7843B99DF809302BB905263046CA
:1005B00009B0BDE8F08300274A4639462846FFF7D0
:1005C00031FDA0F111035A425A412C4B04461978CF
:1005D0002846FCF743FE112C20D8072C02D80CBB70
:1005E00026463DE0A4F10803092B1BD801A252F8CE
:1005F00023F000BFE10503002506030025060300E4
:10060000E105030025060300E105030025060300BC
:1006100025060300250603004706030043F20203F4
:100620009C42DDD02046F9F7F1FF154E15490246F0
:100630001548361AF608360446F001002B46F7F73F
:1006400010FA03260CE0114B324619782846FCF7C5
:1006500005FE0F4B4A4619782846FCF7FFFD002699
:10066000B8F1000FA3D03A4621462846FFF7E6FE30
:100670009DE700BF44350020413500203E23002087
:10068000E4110300A13103003C1103003D230020CD
:100690003C23002013B50A4B19780446FCF7C6FD2D
:1006A000084B019019782046FCF7C0FD019A0146DD
:1006B0000123204602B0BDE81040FFF753BF00BF42
:1006C0003C2300203D230020F7B507460C460029B7
:1006D00045D0FCF759FD0546002842D03846FDF7C5
:1006E000BDFB06464FF6FF70301AA5F1020318BF96
:1006F00001205D425D41237845EAC00523F00903EE
:100700001D4325703846FCF751FD237860F3410303
:1007100023703846FCF75CFD237860F38203237076
:100720003846FCF767FD0546B8B93846FCF73EFD8C
:1007300050B16A4607213046FEF76AFA58B9019B64
:1007400093F8440000F00100237860F30413237051
:10075000002003B0F0BD2846F6E70120F4E70E20A4
:10076000F7E743F20200F4E713B5E0230C4601A9D2
:100770008DF80430FFF7A8FF9DF80420237828B9EE
:1007800093430CBF0120002002B010BD0020FBE706
:1007900013B50378062B044607D0132B0CD0204644
:1007A00002B0BDE81040FFF73DBE8168408802B04E
:1007B000BDE81040FFF790BE134B1A68FAB14088AD
:1007C000FCF7F4FC0146E0B1227A6088C2F34003F2
:1007D000C2F300019B00C2F3800243EAC10343EA73
:1007E000021301A98DF80430FFF7BEFF80F001006D
:1007F000C2B2002160880123FFF7B4FECFE70121D8
:10080000F8E70246F6E700BF4435002008B5037854
:100810000C2B0FD8082B0FD9084B09491878002248
:10082000FCF736FD074B084918780022BDE8084060
:10083000FCF72EBD142BEFD008BD00BF3F230020D6
:100840005D0503003E2300209506030010B50F4808
:100850000F4CFFF7E9FD0F48FFF7E6FD0E48FFF7E5
:10086000E3FD2046FFF7E0FD2378182B0BD10B4B5F
:100870000B480C49C01AC008000440F00100F7F70B
:10088000E3F8032010BD0020FCE700BF3E2300205A
:100890003F2300203C2300203D2300203C11030087
:1008A000E4110300591D030008B5FFF7D1FB074B06
:1008B000074918780022FCF7EBFC064B064918782C
:1008C0000022BDE80840FCF7E3BC00BF3F23002046
:1008D0005D0503003E2300209506030010B5044685
:1008E00030B90A4B18600A4B01221A70002010BD63
:1008F000FFF75AFD38B1074B22681A6022791A7146
:10090000024A1360EFE70720F1E700BF44350020FB
:10091000413500203C35002000230A461946FFF7E8
:1009200021BE10DF704711DF7047000013B5044689
:1009300009496846F9F70FFE019808B902B010BDE1
:10094000D0E900212046904718B16846F9F70DFE1E
:10095000F2E71120F2E700BF1432030013B504469A
:1009600007496846F9F7F7FD019B0BB902B010BDC6
:100970002046D3E9002190476846F9F7F6FDF3E7F2
:100980002C320300084B9A6822B11A6822F48002C4
:100990001A607047054B4FF48002C3F88020BFF304
:1009A0004F8FBFF36F8F7047DC29002000E100E01C
:1009B0000B4991F816335A09EC231341DB0706D58E
:1009C000084B9A683AB94FF480030B60704742F2C3
:1009D0000200F7F737BB1A6842F480021A607047CA
:1009E00000E100E0DC290020F7B5194F3C7864BB3A
:1009F000184E012520463570FFF798FF112821D0A9
:100A00002046FFF7ABFF144B8DF8034018680190A8
:100A10000DF10300F7F772FD104901A8FFF781FF00
:100A20000446B0FA80F0400938709DF80300F7F7EB
:100A300089FD3CB90A4B34701C70FFF7B9FF28469A
:100A4000FFF78CFF204603B0F0BD0824FAE700BF93
:100A500049350020483500200E3203006180020035
:100A60004A350020F7B5154F3B781BB3144E0120D3
:100A70003070FFF75BFF11284FF000051CD00220FB
:100A8000FFF76CFF0DF107008DF80750F7F736FD03
:100A9000FFF749FF04469DF807003D70F7F752FD48
:100AA0002CB903203470FFF76DFFFFF757FF204686
:100AB00003B0F0BD0824FAE72C46F8E749350020DA
:100AC00048350020054B1B7833B1054B1B780BB123
:100AD000FFF7C8BFFFF788BF0820704748350020E0
:100AE00049350020014B1878704700BF4935002078
:100AF00007B508496846F9F72EFD019B13B903B005
:100B00005DF804FBD3E9002090476846F9F72DFD16
:100B1000F3E700BF20320300FFF7EABF60DF704752
:100B200069DF704761DF704730B5134B1B7891B0B8
:100B3000FBB1124D34240DF1020103A8ADF80240BF
:100B4000FFF7F0FF70B9294601A8F9F704FD029BF1
:100B5000002BF0D003A8D3E90021904701A8F9F7B2
:100B600004FDF4E7052804D011B0BDE83040F7F7E4
:100B700069BA11B030BD00BF4B350020703403009E
:100B800030B50C4685B0002900F089800023CDE9FE
:100B90000133444A039301230A608DF804008DF861
:100BA000063001A906232020ADF80830FFF7B8FF72
:100BB00060B1F9F72BFD3C4B3C4902463C481B1AFF
:100BC000DB081B0443F00100F6F742FF0023CDE9E8
:100BD000013303932268012301A940208DF80530D9
:100BE000FFF79EFF60B1F9F711FD2F4B3149024627
:100BF0002F481B1ADB081B0443F00100F6F728FFFF
:100C000000232268039301A90120CDE90133FFF7F6
:100C100087FF60B1F9F7FAFC234B274902462448C5
:100C20001B1ADB081B0443F00100F6F711FF002339
:100C3000CDE9023322684FF4B06301A9A1200193EA
:100C4000FFF76EFF60B1F9F7E1FC174B1B49024655
:100C500017481B1ADB081B0443F00100F6F7F8FEE7
:100C6000012300252268039501A9A020CDE90155A3
:100C70008DF80430FFF754FF034668B1F9F7C6FC5E
:100C8000094B0F4902460A481B1ADB081B0443F0B4
:100C90000100F6F7DDFE2B46184605B030BD0E23E9
:100CA000FAE700BF602200209C11030038320300E5
:100CB0003C1103007E320300CA32030016330300E6
:100CC0006733030073B505460668FFF727FF2B68F7
:100CD000B34204461DD91A481A4B1B491B1ADB089C
:100CE0001B0443F002000190F6F7AEFE2B68174993
:100CF00001983246F6F7B5FE4FF080532A68D3F8D4
:100D00000C31134901989B0203F100539A1AF6F72C
:100D10009FFE2CB90F4B01221A70204602B070BD05
:100D20002046F9F773FC074B0B49024604481B1A8F
:100D3000DB081B0443F00100F6F78AFEEDE700BF75
:100D40003C1103009C110300BA330300E933030094
:100D50001A3403004B350020443403004BDF704746
:100D60001FB50E4C01A8FFF7F9FF70B9214602A884
:100D7000F9F7F1FB039B002BF4D00198D3E9002194
:100D8000904702A8F9F7F1FBF4E7052804D004B076
:100D9000BDE81040F7F756B904B010BD8834030021
:100DA00053EA020C61D02DE9F04BB3FA83F51E0033
:100DB00007BFB2FA82F502FA05F403FA05F4164603
:100DC000C5F120051EBF22FA05F73C43203556EA3F
:100DD000044C4FEA144418BF0134A3464FF00009F5
:100DE000C846904271EB030C39D3094207BFB0FAF1
:100DF00080F700FA07F6B1FA81F701FA07F6C7F1B2
:100E000020071EBF20FA07FC46EA0C062037B6FB77
:100E1000FBFC7F1B103F07F01F04C4F120060CFAF7
:100E200004F42CFA06F644BF34460026202FA4BF53
:100E30002646002454EA060C08BF012418EB0408D7
:100E400049EB0609A4FB027CC01B06FB02CC04FB99
:100E500003CC71EB0C01904271EB030CC5D20B4635
:100E6000024649464046BDE8F08BB2FBF3F2000073
:100E70007F2805D8034B185C034B5B5C1840704718
:100E800000207047A034030020350300A0F1610367
:100E9000192B98BF20387047A0F14103192B98BF38
:100EA000203070477F2805D8034B185C034B5B5CF0
:100EB0001840704700207047A0340300203503001D
:100EC000A0F16103192B98BF20387047A0F14103AE
:100ED000192B98BF203070477F299ABF01700120DD
:100EE0006FF02E0070475AB10A787F2A0AD800B1F5
:100EF0000260002119605960501A18BF0120704724
:100F0000002070476FF02E007047000008B5034BBB
:100F10005B689B681B68984708BD00BF40230020A2
:100F200008B50921FFF7F2FF08BD9AB330B5944622
:100F30000F2A18D902460B4640EA010414F0030FA9
:100F400002D00CF1FF3C11E0194610460432043384
:100F50000C680568A54206D110461946ACF1040C90
:100F6000BCF1040FF0D8BCF1010C0FD00A460346C7
:100F700084441146184601330132047891F800E0A8
:100F8000744503D1184611466345F2D100780B78B9
:100F9000C01A30BD00207047844640EA010313F0B8
:100FA000030F18D18446202A0BD32DE9F007B1E8AE
:100FB000F807A0E8F807A2F12002202AF7D2BDE83E
:100FC000F007042A07D351F8043B40F8043BA2F190
:100FD0000402042AF7D2002A05D011F8013B00F8D8
:100FE000013B013AF9D1604670478446002A2DD072
:100FF00010F0030F04D000F8011B013A26D0F7E7E8
:10100000C9B241EA012141EA0141202A12D3A2F1E9
:1010100020022DE9F0030B460C460D460E460F4606
:1010200088468946A0E8FA03203AFBD2BDE8F003DF
:1010300020320BD0042A05D340F8041B043A05D013
:10104000042AF9D200F8011B013AFBD1604670472F
:1010500000F1010110F0030F11D010F8012B002A4C
:1010600023D010F0030F0AD010F8012B002A1CD057
:1010700010F0030F03D010F8012B002A15D02DE932
:1010800070004FF001324FF0803350F8044BA4EB66
:10109000020525EA04051D4000D1F6E7A0F1040091
:1010A00070BC10F8012B002AFBD1A0EB01007047A7
:1010B0007DA202000000000011AA02000000000052
:1010C00041D0020000000000B5BF02000000000097
:1010D000BBCC0200FC2C0020E5E1020030310020F6
:1010E00081CE0200000000003DEF02000000000081
:1010F000F7E3020044310020D5C0020000000000E8
:08110000C1A002000000000084
:1011080089A2020000000000ADAA02000000000051
:10111800290B030000000000610D0300000000001F
:10112800982300206024002068240020A0230020A9
:04113800180000009B
:10113C002A1B030000000000301B0300000000000D
:10114C00371B0300000000003B1B030000000000E5
:10115C00401B030000000000761203000000030394
:10116C004C13030000000000751303000000000086
:10117C00241B0300000000003B22030000000303BB
:10118C00851503000000030306320300000003036F
:10119C0061340300000003037C34030000000303EC
:1011AC006127030000000303D31E030000000303A8
:1011BC00C020030000000303342D030000000303D0
:1011CC00EC2003000000030384250300000003034C
:1011DC006A23030000000303F6310300000003033D
:1011EC007030030000000303F8150300000000003A
:0811FC001016030000000000C2
:10120400481203000000000054120300882200204A
:1012140000000000000000009D900200000000009B
:0412240000000000C6
:10122800FFFFFFFFFFFFFFFFFFFFFFFFFFFFFFFFC6
:1012380000000000000000000000D60106010000C8
:10124800F174020055750200A17402007561727490
:101258005F6C6F675F6261636B656E6400426163B8
:101268006B656E647320666C757368656400617085
:1012780070000000882800207F0000000829002056
:101288001B5B313B33316D0025734C6F67732064F2
:10129800726F70706564202825642925730D0A0013
:1012A8001B5B306D003C25733E2025733A200020DF
:1012B8002530327800202020007C002563001B5B4D
:1012C800313B33306D001B5B313B33326D001B5BB0
:1012D800313B33336D001B5B313B33346D001B5B9B
:1012E800313B33356D001B5B313B33366D001B5B87
:1012F800313B33376D007761726E696E6700696ED6
:10130800666F00646562756700000000A81203003C
:10131800C612030088120300CE120300D61203007F
:10132800DE120300E6120300EE120300F6120300B9
:101338000000000062130300FE12030006130300FE
:101348000B1303006170705F627574746F6E000038
:1013580090220020466174616C206572726F720081
:1013680053797374656D207265736574006170706C
:101378005F74696D657200000100060000000000DE
:1013880054290020CD80020052544320696E7374A2
:10139800616E636520616C726561647920696E694C
:1013A8007469616C697A65642E005254433A206905
:1013B8006E697469616C697A65642E0000000000CA
:1013C80000000000000000000338FDD8704700004E
:1013D8000000FFFFDEC0ADDEFE011EF1DEC0ADDEA7
:1013E800FF011EF130313233343536373839414256
:1013F80043444546705F66730025732063686563E0
:101408006B206661696C656420696E2025732829E4
:1014180020776974682076616C7565203078257846
:101428002E00705F66732D3E705F61706900705F9B
:1014380064657374006C656E00616464725F6973DF
:101448005F616C69676E6564333228737263290063
:10145800616464725F69735F77697468696E5F62FB
:101468006F756E647328705F66732C207372632CBB
:10147800206C656E2900705F7372630021286C65AB
:101488006E202520705F66732D3E705F666C6173F9
:10149800685F696E666F2D3E70726F6772616D5F0F
:1014A800756E69742900616464725F69735F616C49
:1014B80069676E65643332286465737429006164F2
:1014C80064725F69735F616C69676E656433322843
:1014D8002875696E7433325F7429705F737263297B
:1014E80000616464725F69735F77697468696E5FCD
:1014F800626F756E647328705F66732C2064657301
:10150800742C206C656E2900616464725F69735F76
:10151800706167655F616C69676E656428705F6696
:10152800732C20706167655F61646472290061646F
:1015380064725F69735F77697468696E5F626F75FB
:101548006E647328705F66732C20706167655F61D5
:101558006464722C20286C656E202A20705F667384
:101568002D3E705F666C6173685F696E666F2D3EB5
:1015780065726173655F756E69742929006E72669C
:101588005F6673746F72616765006E72665F66731B
:10159800746F726167655F6572617365006E72660C
:1015A8005F6673746F726167655F777269746500EF
:1015B8006E72665F6673746F726167655F696E6984
:1015C800740000000010000004000000010000008A
:1015D80005A10200E5A00200D5A0020019A302009F
:1015E800C9A20200A9A00200ADA00200B1A0020099
:1015F8007077725F6D676D7400000000C0100300A3
:10160800C010030004000000736F72746C69737477
:10161800004E52465F53554343455353004E52467E
:101628005F4552524F525F5356435F48414E444CB8
:1016380045525F4D495353494E47004E52465F4508
:1016480052524F525F534F46544445564943455FA3
:101658004E4F545F454E41424C4544004E52465F02
:101668004552524F525F494E5445524E414C004EDE
:1016780052465F4552524F525F4E4F5F4D454D00A7
:101688004E52465F4552524F525F4E4F545F464F3F
:10169800554E44004E52465F4552524F525F4E4F90
:1016A800545F535550504F52544544004E52465F74
:1016B8004552524F525F494E56414C49445F504142
:1016C80052414D004E52465F4552524F525F494E6D
:1016D80056414C49445F5354415445004E52465F6D
:1016E8004552524F525F494E56414C49445F4C4512
:1016F8004E475448004E52465F4552524F525F493A
:101708004E56414C49445F464C414753004E524661
:101718005F4552524F525F494E56414C49445F44CF
:10172800415441004E52465F4552524F525F444128
:1017380054415F53495A45004E52465F4552524FF5
:10174800525F54494D454F5554004E52465F4552DD
:10175800524F525F4E554C4C004E52465F455252C6
:101768004F525F464F5242494444454E004E5246FE
:101778005F4552524F525F494E56414C49445F4172
:10178800444452004E52465F4552524F525F4255B2
:101798005359004E52465F4552524F525F434F4E87
:1017A8004E5F434F554E54004E52465F4552524F7E
:1017B800525F5245534F5552434553004E52465F70
:1017C8004552524F525F4D4F44554C455F4E4F5412
:1017D8005F494E495449414C495A4544004E524686
:1017E8005F4552524F525F4D555445585F494E49D7
:1017F800545F4641494C4544004E52465F4552525B
:101808004F525F4D555445585F4C4F434B5F4641CF
:10181800494C4544004E52465F4552524F525F4D27
:10182800555445585F554E4C4F434B5F4641494CC4
:101838004544004E52465F4552524F525F4D5554F3
:1018480045585F434F4E445F494E49545F464149AE
:101858004C4544004E52465F4552524F525F4D4FE1
:1018680044554C455F414C52454144595F494E49A6
:101878005449414C495A4544004E52465F455252DC
:101888004F525F53544F524147455F46554C4C00A9
:101898004E52465F4552524F525F4150495F4E4F3C
:1018A800545F494D504C454D454E544544004E52A9
:1018B800465F4552524F525F464541545552455F27
:1018C8004E4F545F454E41424C4544004E52465F90
:1018D8004552524F525F494F5F50454E44494E471B
:1018E800004E52465F4552524F525F4452565F5423
:1018F80057495F4552525F4F56455252554E004E1A
:1019080052465F4552524F525F4452565F545749B0
:101918005F4552525F414E41434B004E52465F4530
:1019280052524F525F4452565F5457495F45525284
:101938005F444E41434B004E52465F4552524F5210
:101948005F424C455F495053505F52585F504B546B
:101958005F5452554E4341544544004E52465F45EC
:1019680052524F525F424C455F495053505F434873
:10197800414E4E454C5F414C52454144595F455894
:1019880049535453004E52465F4552524F525F429C
:101998004C455F495053505F4C494E4B5F44495347
:1019A800434F4E4E4543544544004E52465F4552C0
:1019B800524F525F424C455F495053505F50454526
:1019C800525F52454A454354454400556E6B6E6F0D
:1019D800776E206572726F7220636F646500000015
:1019E800000000001916030001000000251603007E
:1019F8000200000043160300030000006416030001
:101A08000400000077160300050000008816030094
:101A1800060000009C16030007000000B41603002F
:101A280008000000CC16030009000000E4160300BB
:101A38000A000000FD1603000B0000001517030044
:101A48000C0000002C1703000D00000040170300D5
:101A58000E000000521703000F000000611703007A
:101A68001000000075170300110000008C17030018
:101A7800120000009B17030013000000B0170300BA
:101A880080000000C417030081000000E517030070
:101A98008200000001180300830000001D180300E5
:101AA800840000003B180300850000005C18030058
:101AB80086000000811803009000000098180300B9
:101AC80091000000B618030092000000D41803002B
:101AD80000820000E91803000182000007190300D2
:101AE8000282000023190300008400003F1903004C
:101AF8000184000063190300028400008D190300AB
:101B080003840000B2190300000000000101010075
:101B1800000000000B0C18190D0E0F10636C6F639A
:101B28006B00434C4F434B004750494F54450050BE
:101B3800525300554152540055415254450000003B
:101B48000B0003006DBB02000C0003006DBB02001C
:101B5800180003006DBB0200190003006DBB0200F2
:101B6800C0220020E0220020002300204469736383
:101B78006F6E6E65637465642E00436F6E6E656389
:101B88007465642E004661737420616476657274AE
:101B98006973696E672E004E6F726469635F54657E
:101BA8006D706C6174650054656D706C617465204E
:101BB8006578616D706C6520737461727465642EEC
:101BC80000457261736520626F6E6473210054680A
:101BD80065206C6F63616C20646174616261736518
:101BE80020686173206368616E6765642C20736F79
:101BF80020736F6D652073756273637269707469A1
:101C08006F6E7320746F206E6F7469666963617498
:101C1800696F6E7320616E6420696E6469636174B4
:101C2800696F6E7320636F756C64206E6F742062C9
:101C38006520726573746F72656420666F722063C5
:101C48006F6E6E5F68616E646C65202564006773F3
:101C5800636D5F6C6F63616C5F64625F636163682F
:101C6800655F6170706C7928292072657475726E71
:101C780065642025732077686963682073686F75C9
:101C88006C64206E6F742068617070656E2E2063BE
:101C98006F6E6E5F68616E646C653A2025640067DC
:101CA80073636D5F736572766963655F6368616EA0
:101CB8006765645F696E645F73656E642829207266
:101CC800657475726E656420257320666F72206373
:101CD8006F6E6E5F68616E646C653A2025640046BD
:101CE8006C6173682066756C6C2E20436F756C642C
:101CF800206E6F742073746F726520646174612044
:101D0800666F7220636F6E6E5F68616E646C653AB1
:101D1800202564006773636D5F6C6F63616C5F643B
:101D2800625F63616368655F7570646174652829C3
:101D38002072657475726E656420257320666F72F3
:101D480020636F6E6E5F68616E646C653A2025640F
:101D580000436F756C64206E6F74206163717569E0
:101D6800726520636F6E6E5F73746174652075733E
:101D7800657220666C6167732E20496E63726561B7
:101D8800736520424C455F434F4E4E5F5354415458
:101D9800455F555345525F464C41475F434F554E4B
:101DA8005420696E2074686520626C655F636F6E8D
:101DB8006E5F7374617465206D6F64756C652E0059
:101DC80043415220636861722076616C75652063B7
:101DD8006F756C646E27742062652073746F72650A
:101DE8006420286572726F723A202573292E20525A
:101DF80065617474656D70742077696C6C206861B6
:101E08007070656E206F6E20746865206E657874DA
:101E180020636F6E6E656374696F6E2E00556E6514
:101E28007870656374656420474154542073746105
:101E3800747573207768696C652067657474696E5A
:101E4800672043415220636861722076616C756532
:101E58003A2030782578004D756C7469706C65206F
:101E680028256429204341522063686172616374A4
:101E7800657269737469637320666F756E642C206C
:101E88007573696E67207468652066697273742E4D
:101E980000556E657870656374656420434152200F
:101EA80063686172616374657269737469632076CB
:101EB800616C7565206C656E6774682028256429D7
:101EC8002C2073746F726520302E00706565725F08
:101ED8006D616E616765725F67636D000100FFFF8A
:101EE80000000000010000007064735F7065657297
:101EF8005F646174615F73746F726528292072650D
:101F08007475726E6564202573207768696C652026
:101F180073746F72696E6720736572766963652082
:101F28006368616E676564737461746520666F7257
:101F380020706565722069642025642E00706462D3
:101F48005F706565725F646174615F7074725F670A
:101F5800657428292072657475726E65642025730E
:101F680020666F7220636F6E6E5F68616E646C6569
:101F78003A2025640044696420616E6F7468657254
:101F880020746872656164206D616E6970756C613A
:101F9800746520504D5F504545525F444154415F40
:101FA80049445F474154545F4C4F43414C20666F4E
:101FB8007220706565725F696420256420617420F1
:101FC8007468652073616D652074696D653F207064
:101FD80064625F77726974655F6275665F72656C6B
:101FE8006561736528292072657475726E65642051
:101FF80025732E0073645F626C655F676174747328
:102008005F7379735F617474725F736574282920D4
:1020180072657475726E6564204E52465F45525201
:102028004F525F494E56414C49445F444154412008
:10203800666F72204E554C4C20706F696E746572D5
:102048002077686963682073686F756C64206E65B3
:102058007665722068617070656E2E20636F6E6E93
:102068005F68616E646C653A2025640073645F6222
:102078006C655F67617474735F696E697469616CBC
:102088005F757365725F68616E646C655F676574C0
:1020980028292072657475726E656420257320770F
:1020A800686963682073686F756C64206E6F74204C
:1020B80068617070656E2E00706565725F6D616E27
:1020C800616765725F6773636D000000010001005E
:1020D800E420030001000100E820030001000000E3
:1020E80000000000706565725F6D616E6167657202
:1020F8005F696D0073645F626C655F6761705F64E0
:102108006174615F6C656E6774685F757064617433
:1021180065282920287265717565737429206F6E8A
:1021280020636F6E6E656374696F6E2030782578F2
:102138002072657475726E65642025732E0054686C
:1021480065207265717565737465642054582F52E3
:1021580058207061636B6574206C656E67746820C5
:10216800697320746F6F206C6F6E67206279202509
:10217800752F2575206F63746574732E0054686518
:102188002072657175657374656420636F6D62692B
:102198006E6174696F6E206F6620545820616E649A
:1021A800205258207061636B6574206C656E67748B
:1021B800687320697320746F6F206C6F6E6720627C
:1021C80079202575206D6963726F7365636F6E641E
:1021D800732E0073645F626C655F67617474635F1C
:1021E80065786368616E67655F6D74755F72657148
:1021F8007565737428292072657475726E6564201C
:1022080025732E0073645F626C655F676174747315
:102218005F65786368616E67655F6D74755F726529
:10222800706C7928292072657475726E6564202532
:10223800732E006E72665F626C655F67617474000E
:10224800436F756C64206E6F742064656C6574658B
:10225800207065657220646174612E206664735F06
:1022680066696C655F64656C6574652829207265AC
:102278007475726E6564203078257820666F7220D8
:10228800706565725F69643A20256400436F756CF8
:1022980064206E6F7420696E697469616C697A650F
:1022A80020666C6173682073746F726167652E2095
:1022B8006664735F72656769737465722829207232
:1022C800657475726E656420307825782E00436FCA
:1022D800756C64206E6F7420696E697469616C69CD
:1022E8007A6520666C6173682073746F72616765C4
:1022F8002E206664735F696E69742829207265747C
:1023080075726E656420307825782E00436F756C81
:1023180064206E6F742077726974652064617461DB
:1023280020746F20666C6173682E206664735F7218
:1023380065636F72645F7B77726974657C757064BE
:102348006174657D28292072657475726E656420D4
:10235800307825782E20706565725F69643A20258B
:102368006400706565725F6D616E616765725F704C
:10237800647300706D5F6275666665725F70747213
:102388005F676574282920636F756C64206E6F74AD
:102398002072657472696576652052414D206275B8
:1023A800666665722E20626C6F636B5F69643A20A3
:1023B8002564007064735F706565725F6461746141
:1023C8005F73746F726528292072657475726E6503
:1023D800642025732E20706565725F69643A202534
:1023E8006400536F6D652070656572206461746167
:1023F80020776173206E6F742070726F7065726CD5
:1024080079207772697474656E20746F20666C61C8
:1024180073682E2077726974655F6275665F73747E
:102428006F726528292072657475726E656420253F
:102438007320666F7220706565725F69643A202543
:102448006400504D5F4255464645525F494E4954D7
:1024580028292072657475726E65642025732E00B4
:1024680043616E6E6F742073746F7265206461745B
:102478006120746F20666C617368206265636175A2
:10248800736520706D5F6275666665725F707472E1
:102498005F676574282920636F756C64206E6F749C
:1024A8002072657472696576652052414D206275A7
:1024B800666665722E20497320626C6F636B5F6974
:1024C80064202564206E6F7420616C6C6F63617486
:1024D80065643F007064625F77726974655F6275F6
:1024E800665F72656C65617365282920726574750D
:1024F800726E656420257320776869636820736845
:102508006F756C64206E6F742068617070656E2ED4
:1025180020706565725F69643A2025642C206461C7
:1025280074615F69643A20256400506565722049CA
:102538004420256420776173206E6F742070726F59
:102548007065726C792072656C65617365642E20A4
:102558007064735F706565725F69645F66726565F4
:1025680028292072657475726E65642025732E2083
:10257800706565725F69643A2025640070656572EC
:102588005F6D616E616765725F70646200257320BC
:102598006661696C65642062656361757365207046
:1025A80064735F696E697428292072657475726E28
:1025B80065642025732E002573206661696C656447
:1025C8002062656361757365207064625F696E6916
:1025D8007428292072657475726E65642025732EBF
:1025E800002573206661696C6564206265636175A6
:1025F800736520736D5F696E69742829207265742C
:1026080075726E65642025732E00257320666169D6
:102618006C6564206265636175736520736D645FC2
:10262800696E697428292072657475726E656420F4
:1026380025732E002573206661696C6564206265C8
:1026480063617573652067636D5F696E69742829B6
:102658002072657475726E65642025732E0025736B
:10266800206661696C6564206265636175736520C5
:102678006773636D5F696E69742829207265747564
:10268800726E65642025732E0025732829206661E3
:10269800696C656420626563617573652061206398
:1026A800616C6C20746F20706D5F706565725F641B
:1026B800656C65746528292072657475726E656429
:1026C8002025732E20706565725F69643A20256441
:1026D80000436F756C64206E6F7420726574726548
:1026E8006976652072616E6B732E207064625F700C
:1026F8006565725F646174615F6C6F61642829202D
:1027080072657475726E65642025732E2070656518
:10271800725F69643A20256400436F756C64206EAB
:102728006F74207570646174652072616E6B2E2001
:102738007064625F7261775F73746F7265282920B5
:1027480072657475726E65642025732E20706565D8
:10275800725F69643A20256400706565725F6D6117
:102768006E6167657200000001000600D034002029
:10277800706D5F70656572735F64656C6574650024
:10278800706D5F696E697400706D5F636F6E6E5F08
:102798007365637572652829206661696C656420B4
:1027A8006265636175736520616E20534D502074B6
:1027B800696D656F75742069732070726576656ED2
:1027C80074696E67207365637572697479206F6EBA
:1027D80020746865206C696E6B2E20446973636F82
:1027E8006E6E656374696E6720636F6E6E5F686195
:1027F8006E646C652025642E0073645F626C655F8F
:102808006761705F646973636F6E6E6563742829AE
:102818002072657475726E6564202573206F6E2052
:10282800636F6E6E5F68616E646C652025642E0050
:10283800706D5F636F6E6E5F73656375726528296F
:10284800206661696C6564206265636175736520E3
:102858007468652073746F726564206461746120A4
:10286800666F7220636F6E6E5F68616E646C652060
:10287800256420646F6573206E6F742068617665C7
:1028880020612076616C6964206B65792E00706D1B
:102898005F636F6E6E5F7365637572652829206666
:1028A80061696C6564206265636175736520636F37
:1028B8006E6E5F68616E646C6520256420697320A4
:1028C8006E6F7420612076616C696420636F6E6E30
:1028D800656374696F6E2E00417373657274696EF7
:1028E800672E20706D5F636F6E6E5F7365637572C0
:1028F8006528292072657475726E656420257320B9
:102908006F6E20636F6E6E5F68616E646C65202504
:10291800642E00417474656D7074696E6720746FFD
:1029280020636C65616E20666C6173682E00446577
:102938006C6574696E67206C6F776573742072615B
:102948006E6B656420706565722028706565725FBE
:1029580069643A20256429005468657265206172AB
:1029680065206E6F20706565727320746F206465D2
:102978006C6574652E00506565722072616E6B73AC
:102988002066756E6374696F6E616C69747920690D
:10299800732064697361626C65642C20736F206EA8
:1029A8006F207065657273206172652064656C655F
:1029B8007465642E00436F6E6E656374696F6E2074
:1029C800736563757265643A20726F6C653A202589
:1029D800732C20636F6E6E5F68616E646C653A205D
:1029E80025642C2070726F6365647572653A2025C2
:1029F8007300436F6E6E656374696F6E20736563F1
:102A08007572697479206661696C65643A20726FC1
:102A18006C653A2025732C20636F6E6E5F68616E5B
:102A2800646C653A20307825782C2070726F636565
:102A3800647572653A2025732C206572726F723A3C
:102A480020256400466C6173682073746F72616737
:102A5800652069732066756C6C00556E65787065C5
:102A68006374656420666174616C206572726F724C
:102A7800206F636375727265643A206572726F7253
:102A88003A202573002C206E6F206368616E67659D
:102A980000506565722064617461207570646174AA
:102AA800656420696E20666C6173683A207065659C
:102AB800725F69643A2025642C20646174615F69DF
:102AC800643A2025732C20616374696F6E3A20255F
:102AD8007325730050656572206461746120757098
:102AE8006461746564206661696C65643A20706528
:102AF80065725F69643A2025642C20646174615FA3
:102B080069643A2025732C20616374696F6E3A20DA
:102B180025732C206572726F723A202573005065F8
:102B280065722064656C657465642073756363659C
:102B3800737366756C6C793A20706565725F696449
:102B48003A20256400506565722064656C65746977
:102B58006F6E206661696C65643A20706565725FA6
:102B680069643A2025642C206572726F723A2025B8
:102B78007300416C6C2070656572732064656C65C8
:102B88007465642E00416C6C207065657220646504
:102B98006C6574696F6E206661696C65643A20655E
:102BA80072726F723A202573004C6F63616C204417
:102BB8004220636F756C64206E6F742062652061BB
:102BC80070706C6965643A20636F6E6E5F68616EE1
:102BD800646C653A2025642C20706565725F6964B1
:102BE8003A20256400466C617368206761726261EF
:102BF800676520636F6C6C656374696F6E206661CE
:102C0800696C65642077697468206572726F7220D8
:102C180025732E00556E6578706563746564205061
:102C28004D206576656E742049443A2030782578C1
:102C38002E00417373657274696E672E0055706457
:102C48006174650044656C657465004F75746461F2
:102C5800746564202830290053657276696365209D
:102C68006368616E6765642070656E64696E67206D
:102C7800666C6167004F75746461746564202832FE
:102C880029004F75746461746564202833290041F4
:102C980070706C69636174696F6E2064617461003F
:102CA80052656D6F7465206461746162617365005B
:102CB800506565722072616E6B00426F6E64696E5A
:102CC800672064617461004C6F63616C2064617497
:102CD80061626173650043656E7472616C20616442
:102CE8006472657373207265736F6C7574696F6E47
:102CF80000456E6372797074696F6E00426F6E641E
:102D0800696E670050616972696E6700496E766125
:102D18006C696420526F6C650050657269706865F3
:102D280072616C0043656E7472616C0070656572E7
:102D38005F6D616E616765725F68616E646C657214
:102D480000000000452C03004C2C0300532C03000A
:102D5800602C03007D2C03008A2C0300972C0300B1
:102D6800A82C0300B82C0300C22C0300CF2C0300AE
:102D7800DE2C0300142D0300212D03002C2D03004D
:102D8800F92C0300042D03000C2D0300436F756C10
:102D980064206E6F7420636C65616E2075702061AD
:102DA80066746572206661696C656420626F6E6422
:102DB800696E672070726F6365647572652E207026
:102DC80064625F77726974655F6275665F72656C6D
:102DD8006561736528292072657475726E65642053
:102DE80025732E20636F6E6E5F68616E646C653A42
:102DF8002025642E00436F756C64206E6F742072FA
:102E0800657472696576652052414D206275666603
:102E1800657220666F7220696E636F6D696E6720D8
:102E2800626F6E642E207064625F77726974655F8A
:102E38006275665F67657428292072657475726E9D
:102E480065642025732E20636F6E6E5F68616E6403
:102E58006C653A20256400696D5F626C655F61642A
:102E680064725F67657428292072657475726E656F
:102E7800642025732E20636F6E6E5F68616E646CCC
:102E8800653A2025642E204C696E6B20776173208B
:102E98006C696B656C7920646973636F6E6E6563CA
:102EA8007465642E0073645F626C655F6761705F50
:102EB8007365635F696E666F5F7265706C792829E8
:102EC8002072657475726E6564204E52465F455275
:102ED8004F525F494E56414C49445F535441544503
:102EE8002C20776869636820697320616E65727247
:102EF8006F7220756E6C65737320746865206C69D9
:102F08006E6B20697320646973636F6E6E6563749A
:102F1800696E672E00436F756C64206E6F74206352
:102F28006F6D706C65746520656E63727970746915
:102F38006F6E2070726F6365647572652E2073649E
:102F48005F626C655F6761705F7365635F696E661A
:102F58006F5F7265706C7928292072657475726E5E
:102F680065642025732E20636F6E6E5F68616E64E2
:102F78006C653A2025642C20706565725F69643A37
:102F88002025642E0052414D2062756666657220C8
:102F9800666F72206E657720626F6E64207761734A
:102FA80020756E617661696C61626C652E20706453
:102FB800625F77726974655F6275665F67657428BA
:102FC800292072657475726E65642025732E2063DE
:102FD8006F6E6E5F68616E646C653A2025642E00C2
:102FE800436F756C64206E6F7420616C6C6F6361E5
:102FF8007465206E657720706565725F6964206608
:103008006F7220696E636F6D696E6720626F6E64A0
:103018002E00436F756C64206E6F742073746F722A
:103028006520626F6E642E207064625F77726974C7
:10303800655F6275665F73746F72652829207265B3
:103048007475726E65642025732E20636F6E6E5FD3
:1030580068616E646C653A2025642C207065657221
:103068005F69643A20256400706565725F6D616E02
:10307800616765725F736D640043616E6E6F742083
:10308800736563757265206C696E6B206265636138
:1030980075736520612070726576696F757320732A
:1030A800656375726974792070726F63656475728F
:1030B8006520656E64656420696E2074696D656F4E
:1030C80075742E20446973636F6E6E656374206136
:1030D8006E642072657472792E20736D645F7061FE
:1030E80072616D735F7265706C792829206F722028
:1030F800736D645F6C696E6B5F7365637572652869
:10310800292072657475726E6564204E52465F455B
:1031180052524F525F54494D454F55542E20636FBC
:103128006E6E5F68616E646C653A20256400436F5B
:10313800756C64206E6F7420706572666F726D2096
:1031480073656375726974792070726F63656475ED
:1031580072652E20736D645F706172616D735F724A
:1031680065706C792829206F7220736D645F6C69B3
:103178006E6B5F7365637572652829207265747557
:10318800726E65642025732E20636F6E6E5F6861B2
:103198006E646C653A20256400436F756C64206E1C
:1031A8006F7420706572666F726D207365637572D7
:1031B8006974792070726F6365647572652E207307
:1031C8006D645F6C696E6B5F7365637572652829E2
:1031D8002072657475726E65642025732E20636F86
:1031E8006E6E5F68616E646C653A20256400706578
:1031F80065725F6D616E616765725F736D006E7297
:10320800665F736468000100000700000011030096
:10321800081103000800000018110300281103001A
:10322800080000000811030018110300080000003E
:1032380073645F626C655F6366675F736574282992
:103248002072657475726E656420257320776865D1
:103258006E20617474656D7074696E6720746F2078
:1032680073657420424C455F434F4E4E5F4346475B
:103278005F4741502E0073645F626C655F636667E9
:103288005F73657428292072657475726E65642091
:103298002573207768656E20617474656D70746934
:1032A8006E6720746F2073657420424C455F4741F8
:1032B800505F4346475F524F4C455F434F554E540E
:1032C8002E0073645F626C655F6366675F73657425
:1032D80028292072657475726E65642025732077BD
:1032E80068656E20617474656D7074696E672074AA
:1032F8006F2073657420424C455F434F4D4D4F4ED0
:103308005F4346475F56535F555549442E007364E3
:103318005F626C655F6366675F73657428292072F6
:10332800657475726E6564202573207768656E20F4
:10333800617474656D7074696E6720746F2073654D
:103348007420424C455F47415454535F4346475F9E
:10335800415454525F5441425F53495A452E0073B9
:10336800645F626C655F6366675F736574282920B4
:1033780072657475726E6564202573207768656E52
:1033880020617474656D7074696E6720746F207342
:10339800657420424C455F47415454535F43464748
:1033A8005F534552564943455F4348414E4745445C
:1033B8002E00496E73756666696369656E7420527E
:1033C800414D20616C6C6F636174656420666F7237
:1033D8002074686520536F66744465766963652E4A
:1033E800004368616E6765207468652052414D200E
:1033F8007374617274206C6F636174696F6E206698
:10340800726F6D203078257820746F203078257899
:103418002E004D6178696D756D2052414D2073699C
:103428007A6520666F72206170706C696361746977
:103438006F6E20697320307825782E0073645F6280
:103448006C655F656E61626C6528292072657475AC
:10345800726E65642025732E006E72665F736468F1
:103468005F626C6500000000C010030000110300DB
:10347800080000006E72665F7364685F736F6300B4
:10348800B0100300C0100300080000004300000053
:10349800504F534958000000202020202020202091
:1034A80020682828282820202020202020202020AC
:1034B800202020202020202048101010101010104C
:1034C8001010101010101010848484848484848454
:1034D8008484101010101010108181818181810165
:1034E80001010101010101010101010101010101C4
:1034F8000101011010101010108282828282820253
:103508000202020202020202020202020202020293
:1035180002020210101010200007032004170201F5
:1035280008571040800000009434030098350300C9
:10353800AC36030053756E004D6F6E005475650010
:1035480057656400546875004672690053617400D9
:10355800000000004A616E00466562004D6172001D
:10356800417072004D6179004A756E004A756C00B1
:1035780041756700536570004F6374004E6F7600A5
:103588004465630000000000414D00504D000000FC
:10359800D0360300CC360300CC360300CC3603000B
:1035A800CC360300CC360300CC360300CC360300FF
:1035B800CC360300CC360300FFFFFFFFFFFFFFFF01
:1035C800FFFFFFFFFFFF00000C3603003C35030040
:1035D800483603005C35030090350300F0350300DE
:1035E800A0360300FC350300256D2F25642F2579AF
:1035F8000000000025612025622025652025542033
:103608002559000053756E646179004D6F6E6461D1
:10361800790054756573646179005765646E6573E4
:1036280064617900546875727364617900467269DF
:1036380064617900536174757264617900000000F7
:103648004A616E7561727900466562727561727958
:10365800004D6172636800417072696C004D617958
:10366800004A756E65004A756C7900417567757317
:10367800740053657074656D626572004F63746F92
:10368800626572004E6F76656D62657200446563AF
:10369800656D62657200000025483A254D3A25534C
:1036A80000000000710E03008D0E0300990E030048
:1036B800A50E0300C10E0300CD0E0300D90E0300B2
:0C36C800E70E0300000000002E000000D0
:1036D4000000000000200040000000000020004026
:1036E4000000000000000000FF00000000000000D7
:1036F40000000000FFFFFFFFFFFFFFFF00000000CE
:103704000000000000000000000000000010014064
:10371400110004000090D00300000000000000002D
:1037240000000000FFFFFFFFFFFFFFFF000000009D
:103734000000000000000000000000000000000085
:1037440000000000FFFFFFFFFFFFFFFF000000007D
:103754000000000000000000000000000000000065
:1037640000000000FFFFFFFFFFFFFFFF000000005D
:103774000000000000000000000000000A18010022
:10378400FFFF1801FFFFFFFFFFFFFFFFFFFFFFFF2A
:10379400FFFFFFFF18181818181818183035030001
:1037A4003035030030350300303503003035030075
:0400000320007375F1
:00000001FF
